:100000000C945E000C9486000C9486000C94860080
:100010000C9486000C9486000C9486000C94860048
:100020000C9486000C9486000C9486000C94860038
:100030000C9486000C9486000C9486000C94860028
:100040000C9428040C9486000C94F6030C94D003B2
:100050000C9486000C9486000C9486000C94860008
:100060000C9486000C948600000000080002010039
:100070000003040700000000000000000000000072
:10008000250028002B0000000000240027002A0083
:10009000040404040404040402020202020203032E
:1000A0000303030301020408102040800102040836
:1000B00010200102040810207204E50611241FBE5E
:1000C000CFEFD8E0DEBFCDBF11E0A0E0B1E0E2E7C6
:1000D000F4E102C005900D92A038B107D9F722E0F3
:1000E000A0E8B1E001C01D92AC33B207E1F710E027
:1000F000CDE5D0E004C02197FE010E942B08CC354D
:10010000D107C9F70E94BC040C942C0A0C9400007F
:1001100090E0FC01EC55FF4F249180579F4FFC016C
:100120008491882399F090E0880F991FFC01EA5789
:10013000FF4FA591B491FC01E458FF4F8591949134
:100140008FB7F894EC91E22BEC938FBF089508954C
:10015000AF92BF92CF92DF92EF92FF920F931F93D5
:10016000CF93DF936C017B018B01040F151FEB0113
:100170005E01AE18BF08C017D10759F06991D601CA
:10018000ED91FC910190F081E02DC6010995892B3C
:1001900079F7C501DF91CF911F910F91FF90EF90FB
:1001A000DF90CF90BF90AF900895FC01538D448DA8
:1001B000252F30E0842F90E0821B930B541710F012
:1001C000CF96089501970895FC01918D828D98171F
:1001D00061F0A28DAE0FBF2FB11D5D968C91928DF7
:1001E0009F5F9F73928F90E008958FEF9FEF089528
:1001F0002FB7F89480918B0190918C01A0918D0183
:10020000B0918E012FBF8093970190939801A09396
:100210009901B0939A018FE891E00E94E40097FF62
:1002200026C02FB7F89480918B0190918C01A091FA
:100230008D01B0918E012FBF40919701509198018F
:100240006091990170919A01841B950BA60BB70BD5
:1002500040919301509194016091950170919601A4
:1002600084179507A607B707B0F28FEF9FEF0895A1
:10027000FC01918D828D981731F0828DE80FF11D70
:10028000858D90E008958FEF9FEF0895FC01918D8B
:10029000228D892F90E0805C9F4F821B91098F7384
:1002A000992708958FE891E00E94460121E0892B6B
:1002B00009F420E0822F089580E090E0892B29F056
:1002C0000E94520181110C9400000895FC01A48D3C
:1002D000A80FB92FB11DA35ABF4F2C91848D90E068
:1002E00001968F739927848FA689B7892C93A0894B
:1002F000B1898C91837080648C93938D848D9813D5
:1003000006C00288F389E02D80818F7D8083089567
:10031000EF92FF920F931F93CF93DF93EC0181E055
:10032000888F9B8D8C8D98131AC0E889F9898081FC
:1003300085FF15C09FB7F894EE89FF896083E8892F
:10034000F98980818370806480839FBF81E090E021
:10035000DF91CF911F910F91FF90EF900895F62EAE
:100360000B8D10E00F5F1F4F0F731127E02E8C8D48
:100370008E110CC00FB607FCFACFE889F98980818D
:1003800085FFF5CFCE010E946601F1CFEB8DEC0F1A
:10039000FD2FF11DE35AFF4FF0829FB7F8940B8FAA
:1003A000EA89FB8980818062CFCFCF93DF93EC0114
:1003B000888D8823B9F0AA89BB89E889F9898C914D
:1003C00085FD03C0808186FD0DC00FB607FCF7CF09
:1003D0008C9185FFF2CF808185FFEDCFCE010E9409
:1003E0006601E9CFDF91CF91089590E0FC01E859D3
:1003F000FF4F2491FC01EC55FF4F3491FC01E05775
:10040000FF4FE491EE23C9F0222339F0233001F1AC
:10041000A8F4213019F1223029F1F0E0EE0FFF1F8E
:10042000E458FF4FA591B4918FB7F894EC91611106
:1004300026C030953E233C938FBF08952730A9F006
:100440002830C9F0243049F7809180008F7D03C0A7
:10045000809180008F7780938000DFCF84B58F7785
:1004600084BDDBCF84B58F7DFBCF8091B0008F77CB
:100470008093B000D2CF8091B0008F7DF9CF3E2B1A
:10048000DACF3FB7F8948091810190918201A091D9
:100490008301B091840126B5A89B05C02F3F19F0B8
:1004A0000196A11DB11D3FBFBA2FA92F982F8827F4
:1004B000BC01CD01620F711D811D911D42E0660FCF
:1004C000771F881F991F4A95D1F708958F929F92A1
:1004D000AF92BF92CF92DF92EF92FF920E944102C1
:1004E0004B015C0188EEC82E83E0D82EE12CF12C64
:1004F0000E944102681979098A099B09683E734084
:1005000081059105A8F321E0C21AD108E108F1089C
:1005100088EE880E83E0981EA11CB11CC114D10482
:10052000E104F10429F7FF90EF90DF90CF90BF90A6
:10053000AF909F908F900895FC0101900020E9F703
:100540003197AF01481B590BBC018FE891E00C9427
:10055000A800CF93DF930E949C02EC018EE191E012
:100560000E949C028C0F9D1FDF91CF910895809176
:1005700032029091330260912C0270912D0200970B
:10058000E1F061157105B9F420913602309137021E
:10059000232BB1F0FC01808190E00895809130021E
:1005A00090913102892B61F0FB01808190E091955F
:1005B0008195910908950C941C0A6115710571F7D4
:1005C00090E080E008950F931F93CF93DF938C0109
:1005D000EB01FC01808191810097E1F068817981D4
:1005E00061157105A9F0428153812C813D8142172B
:1005F000530770F00E94250A8C819D81F801958334
:1006000084831D821C82DF91CF911F910F910895E9
:100610000E94CD0888819981F801918380838A8125
:100620009B81938382838C819D81958384831982AE
:1006300018821B821A82E5CFFC018081918100978C
:1006400011F00C94CD0808950F931F93CF93DF936F
:10065000EC0188819981009759F02A813B81261706
:10066000370730F081E0DF91CF911F910F9108950E
:100670008B016F5F7F4F0E945609009759F0998355
:1006800088831B830A832C813D81232B59F7FC012E
:100690001082E8CF80E0E7CFEF92FF920F931F9395
:1006A000CF93DF93EC017B01FB0101900020E9F780
:1006B0003197E61BF70BA1F00C811D810E0F1F1F58
:1006C000B8010E94240328813981882389F08C8114
:1006D0009D81B701820F931F0E94250A1D830C8301
:1006E000CE01DF91CF911F910F91FF90EF90089570
:1006F0002115310519F0C9010E94CD08198218820F
:100700001D821C821B821A82EBCFEF92FF920F9305
:100710001F93CF93DF93EC017B018A01BA010E9402
:10072000240328813981811114C02115310519F064
:10073000C9010E94CD08198218821D821C821B8269
:100740001A82CE01DF91CF911F910F91FF90EF9010
:1007500008951D830C83B701C9010E94250AF1CFBA
:1007600050E040E060E271E00C948503FB01DC01A5
:1007700011961C921E9213961C921E921297159619
:100780001C921E9214978617970749F06081718119
:100790006115710521F0448155810C9485030895FC
:1007A0001F920F920FB60F9211242F933F934F93E6
:1007B0005F936F937F938F939F93AF93BF93EF93C9
:1007C000FF938FE891E00E946601FF91EF91BF9146
:1007D000AF919F918F917F916F915F914F913F91D9
:1007E0002F910F900FBE0F901F9018951F920F9290
:1007F0000FB60F9211242F938F939F93EF93FF9334
:10080000E0919F01F091A0018081E091A501F0911C
:10081000A60182FD1BC090818091A8018F5F8F731C
:100820002091A901821741F0E091A801F0E0E15781
:10083000FE4F958F8093A801FF91EF919F918F912B
:100840002F910F900FBE0F901F9018958081F4CFBD
:100850001F920F920FB60F9211242F933F938F93F5
:100860009F93AF93BF9380918B0190918C01A09146
:100870008D01B0918E013091800123E0230F2D373F
:1008800058F50196A11DB11D2093800180938B0125
:1008900090938C01A0938D01B0938E018091810182
:1008A00090918201A0918301B09184010196A11DD4
:1008B000B11D8093810190938201A0938301B09335
:1008C0008401BF91AF919F918F913F912F910F9094
:1008D0000FBE0F901F90189526E8230F0296A11DBA
:1008E000B11DD2CFEFE8F1E01382128288EE93E0DF
:1008F000A0E0B0E084839583A683B78380E191E094
:100900009183808385EC90E09587848784EC90E0E8
:100910009787868780EC90E0918B808B81EC90E0CC
:10092000938B828B82EC90E0958B848B86EC90E0AD
:10093000978B868B118E128E138E148EE2E3F2E06B
:1009400011821082138212821582148250E040E0DC
:1009500060E271E0CF010E948503ECE2F2E01182D7
:100960001082138212821582148250E040E060E20D
:1009700071E0CF010C948503CF93DF93CDB7DEB741
:10098000A7970FB6F894DEBF0FBECDBF789484B59D
:10099000826084BD84B5816084BD85B5826085BD7B
:1009A00085B5816085BD80916E00816080936E0009
:1009B00010928100809181008260809381008091FB
:1009C00081008160809381008091800081608093AC
:1009D00080008091B10084608093B1008091B0006C
:1009E00081608093B00080917A00846080937A0067
:1009F00080917A00826080937A0080917A00816091
:100A000080937A0080917A00806880937A001092B7
:100A1000C100E0919F01F091A00182E08083E0910C
:100A20009B01F0919C011082E0919D01F0919E014B
:100A30008FEC80831092A701E091A301F091A401B3
:100A400086E08083E091A101F091A2018081806124
:100A50008083E091A101F091A20180818860808370
:100A6000E091A101F091A201808180688083E091F2
:100A7000A101F091A20180818F7D808387E00E9497
:100A8000880088E00E9488008CE00E9488009AE03C
:100A9000C92ED12CE12CF12C23E0822E912CA12CFB
:100AA000B12C80E0282E80E0382E60E087E00E94A4
:100AB000F50160E088E00E94F50160E08CE00E94B2
:100AC000F5010091890110918A01609000017090F8
:100AD0000101601671060CF4F4C081E291E00E94FD
:100AE000A9024090000150900101052C000C6608FD
:100AF000770877FE90C06DE28FE891E00E94880150
:100B000022273327A901241935094609570919A2B3
:100B10008E010F5D1F4FCA01B901A70196010E9406
:100B2000FA07605DF80162938F01211531054105D7
:100B3000510589F70115110519F0C8010E949C02A1
:100B40008EE191E00E949C020E943907A501940168
:100B50000E9491072B013C01409285015092860131
:100B6000609287017092880160E087E00E94F50141
:100B700060E088E00E94F50160E08CE00E94F501F1
:100B8000F1E04F1651046104710409F45AC082E087
:100B9000481651046104710409F473C045284628BD
:100BA000472809F08ECF61E087E00E94F50160E000
:100BB00088E00E94F50160E08CE00E94F5010E944F
:100BC00066028091890190918A01019690938A0131
:100BD000809389016CE272E0CE0182960E94B60396
:100BE00066E371E0CE0182960E944C03BC01CE0107
:100BF00001960E94B603BE016F5F7F4F8CE292E0C8
:100C00000E94E302CE0101960E941C03CE0182964F
:100C10000E941C0356CFA301920119A28E010F5D01
:100C20001F4FCA01B901A70196010E94FA07605D32
:100C3000F80162938F01211531054105510589F7AE
:100C400079CF60E087E00E94F50161E088E00E94D2
:100C5000F50160E08CE00E94F5010E94660280913F
:100C6000890190918A01019690938A01809389016C
:100C70006CE272E0CE0182960E94B60368E371E0F6
:100C8000B1CF60E087E00E94F50160E088E00E945B
:100C9000F50161E08CE00E94F5010E9466028091FE
:100CA000890190918A01019690938A01809389012C
:100CB0006CE272E0CE0182960E94B6036AE371E0B4
:100CC00091CF8FE891E00E944601892B09F466C01C
:100CD000015011096016710609F060C01A8219826C
:100CE0001C821B821E821D8250E040E060E271E0A7
:100CF000CE0101960E9485030E94F80097FD1BC05B
:100D00008AA31BA20D811E810F5F1F4FB801CE0168
:100D100001960E942403882379F329813A818D81E9
:100D20009E81BE016E5D7F4F820F931F0E94250A38
:100D30001E830D83E1CFBE016F5F7F4F82E392E0A0
:100D40000E94E302CE0101960E941C03209136020C
:100D50003091370280913002909131022817390783
:100D600049F50E94B702892B29F58CE391E00E9496
:100D7000A9028091000190910101019690930101D7
:100D80008093000110928A01109289018CE292E016
:100D90000E94B00382E392E00E94B0032114310468
:100DA00009F483CE0E945201882309F47ACE0E946E
:100DB000000077CE8CE591E00E94A902E2E0F0E02D
:100DC000F0930101E0930001DDCF8CE292E00E94FC
:100DD0001C0382E392E00C941C038F929F92AF92CB
:100DE000BF92CF92DF92EF92FF92CF93DF93EC010D
:100DF000688179818A819B816115710581059105E1
:100E000021F464E279ED8BE597E02DE133EF41E0E9
:100E100050E00E94910749015A019B01AC01A7EAE9
:100E2000B1E40E94B0076B017C01ACEEB4EFA50108
:100E300094010E94BE07C60ED71EE81EF91EF7FEDB
:100E400006C081E0C81AD108E10880E8F80AC88223
:100E5000D982EA82FB82C701B6019F77DF91CF91E9
:100E6000FF90EF90DF90CF90BF90AF909F908F90CA
:100E700008958F929F92AF92BF92CF92DF92EF929E
:100E8000FF926091020170910301809104019091A1
:100E90000501611571058105910521F464E279ED83
:100EA0008BE597E02DE133EF41E050E00E949107A0
:100EB00049015A019B01AC01A7EAB1E40E94B007C5
:100EC0006B017C01ACEEB4EFA50194010E94BE075A
:100ED000C60ED71EE81EF91EF7FE06C081E0C81A2E
:100EE000D108E10880E8F80AC0920201D09203011B
:100EF000E0920401F0920501C701B6019F77FF90CF
:100F0000EF90DF90CF90BF90AF909F908F9008951B
:100F10006093020170930301809304019093050193
:100F20000895052E97FB1EF400940E94A80757FD14
:100F300007D00E94FA0707FC03D04EF40C94A807D0
:100F400050954095309521953F4F4F4F5F4F0895F5
:100F500090958095709561957F4F8F4F9F4F089525
:100F60000E941C08A59F900DB49F900DA49F800D1A
:100F7000911D11240895B7FF0C94B0070E94B0078B
:100F8000821B930B08952F923F924F925F926F9224
:100F90007F928F929F92AF92BF92CF92DF92EF9209
:100FA000FF920F931F93CF93DF93CDB7DEB7CA1B8A
:100FB000DB0B0FB6F894DEBF0FBECDBF09942A88B5
:100FC000398848885F846E847D848C849B84AA845D
:100FD000B984C884DF80EE80FD800C811B81AA81EA
:100FE000B981CE0FD11D0FB6F894DEBF0FBECDBFB5
:100FF000ED010895A1E21A2EAA1BBB1BFD010DC035
:10100000AA1FBB1FEE1FFF1FA217B307E407F507B8
:1010100020F0A21BB30BE40BF50B661F771F881F94
:10102000991F1A9469F760957095809590959B012A
:10103000AC01BD01CF010895A29FB001B39FC001D3
:10104000A39F700D811D1124911DB29F700D811DF4
:101050001124911D0895EE0FFF1F0590F491E02DCE
:1010600009940F931F93CF93DF938230910510F46F
:1010700082E090E0E0913A02F0913B0230E020E023
:10108000B0E0A0E0309799F42115310509F44AC089
:10109000281B390B24303105D8F58A819B816115D5
:1010A000710589F1FB0193838283FE0111C04081A8
:1010B00051810281138148175907E0F048175907F9
:1010C00099F4109761F012960C93129713961C9353
:1010D0003296CF01DF91CF911F910F910895009328
:1010E0003A0210933B02F4CF2115310551F042171B
:1010F000530738F0A901DB019A01BD01DF01F801B6
:10110000C1CFEF01F9CF90933B0280933A02CDCF4C
:10111000FE01E20FF31F819391932250310939832D
:101120002883D7CF2091380230913902232B41F404
:10113000209108013091090130933902209338023F
:1011400020910601309107012115310541F42DB799
:101150003EB740910A0150910B01241B350BE091E1
:101160003802F0913902E217F307A0F42E1B3F0B6F
:101170002817390778F0AC014E5F5F4F2417350709
:1011800048F04E0F5F1F509339024093380281930D
:1011900091939FCFF0E0E0E09CCFCF93DF93009757
:1011A000E9F0FC01329713821282A0913A02B091C9
:1011B0003B02ED0130E020E01097A1F42081318165
:1011C000820F931F20913802309139022817390776
:1011D00009F061C0F0933902E0933802DF91CF91BA
:1011E0000895EA01CE17DF07E8F54A815B819E0189
:1011F00041155105B1F7E901FB83EA834991599102
:10120000C40FD51FEC17FD0761F480819181029610
:10121000840F951FE90199838883828193819B8341
:101220008A83F0E0E0E012968D919C9113970097ED
:10123000B9F52D913C911197CD010296820F931F24
:1012400020913802309139022817390739F6309742
:1012500051F510923B0210923A02B0933902A093DA
:101260003802BCCFD383C28340815181840F951F44
:10127000C817D90761F44E5F5F4F88819981480F85
:10128000591F518340838A819B81938382832115D7
:10129000310509F0B0CFF0933B02E0933A029ECFC4
:1012A000FD01DC01C0CF13821282D7CFB0E0A0E0F5
:1012B000ECE5F9E00C94C5078C01009751F4CB01E3
:1012C0000E9431088C01C801CDB7DEB7E0E10C9473
:1012D000E107FC01E60FF71F9C0122503109E217DC
:1012E000F30708F49DC0D901CD91DC911197C61781
:1012F000D70798F0C530D10530F3CE010497861793
:10130000970708F3C61BD70B2297C193D1936D9310
:101310007C93CF010E94CD08D6CF5B01AC1ABD0AE9
:101320004C018C0E9D1EA0913A02B0913B02512CB3
:10133000412CF12CE12C109731F5809138029091DD
:1013400039028815990509F05CC04616570608F061
:1013500058C08091060190910701009741F48DB724
:101360009EB740910A0150910B01841B950BE81721
:10137000F90708F055C0F0933902E0933802F901FB
:1013800071836083A0CF8D919C91119712966C9080
:10139000129713967C901397A815B90559F56C010F
:1013A00042E0C40ED11CCA14DB0420F1AC014A197E
:1013B0005B09DA011296159780F06282738251837D
:1013C0004083D9016D937C93E114F10471F0D7014E
:1013D0001396FC93EE93129776CF22968C0F9D1F57
:1013E000F90191838083F301EFCFF0933B02E09307
:1013F0003A0269CF4816590608F42C017D01D30141
:101400009ACFCB010E9431087C01009749F0AE01D0
:10141000B8010E94130AC8010E94CD08870153CF6A
:1014200010E000E050CFFB01DC0102C001900D9202
:1014300041505040D8F70895FB01DC018D91019097
:1014400080190110D9F3990B0895FB01DC0101907B
:101450000D920020E1F7089510E0CDE5D0E004C042
:10146000FE010E942B082196CE35D107C9F7F894CA
:02147000FFCFAC
:1014720002000100000000003C02800000000000A9
:101482008801A800D500D5014601E40038010D0A03
:1014920000566F63652065737461206E6F206E69FC
:1014A20076656C3A20003100320033005265737069
:1014B2006F73746120636572746121207072C3B3AB
:1014C20078696D6F206E6976656C2E004572726F59
:1014D20075206120726573706F7374612E20566F70
:1014E2006C746120646F20636F6D65636F2E000002
:00000001FF
