:100000000C9463000C948B000C948B000C948B006C
:100010000C948B000C948B000C948B000C948B0034
:100020000C948B000C948B000C948B000C948B0024
:100030000C948B000C948B000C948B000C948B0014
:100040000C9484030C948B000C9452030C942C039A
:100050000C948B000C948B000C948B000C948B00F4
:100060000C948B000C948B000000000023002600F1
:10007000290000000008000201000003040700003E
:1000800000000000000000000000250028002B00F8
:1000900000000000240027002A00040404040404D3
:1000A0000404020202020202030303030303010227
:1000B00004081020408001020408102001020408F6
:1000C0001020CE03330511241FBECFEFD8E0DEBFD2
:1000D000CDBF21E0ACE1B1E001C01D92AA3DB20765
:1000E000E1F711E0A0E0B1E0E8E5FFE002C0059033
:1000F0000D92AC31B107D9F710E0C2E6D0E004C0F0
:100100002197FE010E94A705C136D107C9F70E94B9
:1001100018040C949F070C940000CF93DF9390E099
:10012000FC01E255FF4F249186569F4FFC018491BC
:100130008823C1F090E0880F991FFC01E057FF4F22
:10014000C591D491FC01EA57FF4FA591B4919FB797
:10015000F8943881822F809583238883EC91E22B59
:10016000EC939FBFDF91CF910895AF92BF92CF9252
:10017000DF92EF92FF920F931F93CF93DF936C0167
:100180007B018B01040F151FEB015E01AE18BF0848
:10019000C017D10759F06991D601ED91FC910190FA
:1001A000F081E02DC6010995892B79F7C501DF9112
:1001B000CF911F910F91FF90EF90DF90CF90BF9064
:1001C000AF900895FC01538D448D252F30E0842F8E
:1001D00090E0821B930B541710F0CF96089501976F
:1001E0000895FC01918D828D981761F0A28DAE0F5C
:1001F000BF2FB11D5D968C91928D9F5F9F73928FE3
:1002000090E008958FEF9FEF0895FC01918D828D0E
:10021000981731F0828DE80FF11D858D90E00895DB
:100220008FEF9FEF0895FC01918D228D892F90E033
:10023000805C9F4F821B91098F73992708958DE2EF
:1002400091E00E94130121E0892B09F420E0822F24
:10025000089580E090E0892B29F00E941F01811110
:100260000C9400000895FC01A48DA80FB92FB11DB6
:10027000A35ABF4F2C91848D90E001968F739927DC
:10028000848FA689B7892C93A089B1898C918370BA
:1002900080648C93938D848D981306C00288F389B3
:1002A000E02D80818F7D80830895EF92FF920F93E0
:1002B0001F93CF93DF93EC0181E0888F9B8D8C8D12
:1002C00098131AC0E889F989808185FF15C09FB706
:1002D000F894EE89FF896083E889F98980818370C9
:1002E000806480839FBF81E090E0DF91CF911F9178
:1002F0000F91FF90EF900895F62E0B8D10E00F5F99
:100300001F4F0F731127E02E8C8D8E110CC00FB66E
:1003100007FCFACFE889F989808185FFF5CFCE0106
:100320000E943301F1CFEB8DEC0FFD2FF11DE35A4D
:10033000FF4FF0829FB7F8940B8FEA89FB89808189
:100340008062CFCFCF93DF93EC01888D8823B9F003
:10035000AA89BB89E889F9898C9185FD03C08081D0
:1003600086FD0DC00FB607FCF7CF8C9185FFF2CF4D
:10037000808185FFEDCFCE010E943301E9CFDF916F
:10038000CF91089590E0FC01EE58FF4F2491FC01BD
:10039000E255FF4F3491FC01E656FF4FE491EE2306
:1003A000C1F1222339F02330E9F090F4213001F13A
:1003B000223011F1F0E0EE0FFF1FE859FF4FA59139
:1003C000B491EC91E32381E090E029F580E0089579
:1003D0002730A9F02830C9F0243061F780918000DF
:1003E0008F7D03C0809180008F7780938000E2CF63
:1003F00084B58F7784BDDECF84B58F7DFBCF8091B0
:10040000B0008F778093B000D5CF8091B0008F7D02
:10041000F9CF80E090E008958E3008F08E5087701C
:10042000806480937C0080917A00806480937A005D
:1004300080917A0086FDFCCF8091780090917900C0
:1004400008953FB7F8948091210190912201A091E5
:100450002301B091240126B5A89B05C02F3F19F0B8
:100460000196A11DB11D3FBFBA2FA92F982F882734
:10047000BC01CD01620F711D811D911D42E0660F0F
:10048000771F881F991F4A95D1F708958F929F92E1
:10049000AF92BF92CF92DF92EF92FF920E94210221
:1004A0004B015C0188EEC82E83E0D82EE12CF12CA4
:1004B0000E942102681979098A099B09683E7340E4
:1004C00081059105A8F321E0C21AD108E108F108DD
:1004D00088EE880E83E0981EA11CB11CC114D104C3
:1004E000E104F10429F7FF90EF90DF90CF90BF90E7
:1004F000AF909F908F900895CF93DF93EC01888108
:100500009981009711F00E944906198218821D8274
:100510001C821B821A82DF91CF910895FC01808199
:100520009181009711F00C94490608950F931F9341
:10053000CF93DF93EC0188819981009759F02A814C
:100540003B812617370730F081E0DF91CF911F9173
:100550000F9108958B016F5F7F4F0E94D206009725
:1005600059F0998388831B830A832C813D81232B37
:1005700059F7FC011082E8CF80E0E7CFCF92DF92FD
:10058000EF92FF920F931F93CF93DF93CDB7DEB718
:1005900028970FB6F894DEBF0FBECDBF7C01CB010C
:1005A0004AE09E012F5F3F4F6901B9010E943B0560
:1005B000F60101900020E9F73197EC19FD09D9F017
:1005C000D70114960D911C910E0F1F1FB801C70182
:1005D0000E949602882381F0F70120813181848175
:1005E0009581B601820F931F0E949807D701159637
:1005F0001C930E93149781E028960FB6F894DEBFF3
:100600000FBECDBFDF91CF911F910F91FF90EF9063
:10061000DF90CF900895EF92FF920F931F93CF93A7
:10062000DF93EC017B018A01BA010E9496028111DD
:100630000BC0CE010E947C02CE01DF91CF911F91B1
:100640000F91FF90EF9008951D830C83B70188816F
:1006500099810E949807F0CF1F920F920FB60F92C8
:1006600011242F933F934F935F936F937F938F93B7
:100670009F93AF93BF93EF93FF938DE291E00E941E
:100680003301FF91EF91BF91AF919F918F917F9136
:100690006F915F914F913F912F910F900FBE0F90EF
:1006A0001F9018951F920F920FB60F9211242F933F
:1006B0008F939F93EF93FF93E0913D01F0913E0163
:1006C0008081E0914301F091440182FD1BC0908143
:1006D000809146018F5F8F7320914701821741F00F
:1006E000E0914601F0E0E35DFE4F958F8093460177
:1006F000FF91EF919F918F912F910F900FBE0F90CF
:100700001F9018958081F4CF1F920F920FB60F9211
:1007100011242F933F938F939F93AF93BF93809117
:100720001D0190911E01A0911F01B09120013091F7
:100730001C0123E0230F2D3758F50196A11DB11D93
:1007400020931C0180931D0190931E01A0931F0113
:10075000B09320018091210190912201A091230169
:10076000B09124010196A11DB11D809321019093A8
:100770002201A0932301B0932401BF91AF919F91D7
:100780008F913F912F910F900FBE0F901F90189552
:1007900026E8230F0296A11DB11DD2CFEDE2F1E0B4
:1007A0001382128288EE93E0A0E0B0E08483958308
:1007B000A683B7838AE091E09183808385EC90E003
:1007C0009587848784EC90E09787868780EC90E01B
:1007D000918B808B81EC90E0938B828B82EC90E00C
:1007E000958B848B86EC90E0978B868B118E128E86
:1007F000138E148EE0EDF1E01182108213821282CA
:100800001582148241E050E068E171E0CF010E945E
:100810000B03EAECF1E0118210821382128215823E
:10082000148241E050E06AE171E0CF010C940B03C7
:10083000CF93DF9300D000D000D0CDB7DEB778944F
:1008400084B5826084BD84B5816084BD85B58260D5
:1008500085BD85B5816085BD80916E008160809386
:100860006E001092810080918100826080938100EF
:1008700080918100816080938100809180008160FF
:10088000809380008091B10084608093B10080915A
:10089000B00081608093B00080917A008460809382
:1008A0007A0080917A00826080937A0080917A0049
:1008B000816080937A0080917A00806880937A00CA
:1008C0001092C10082E00E948D0083E00E948D00A2
:1008D000E0913D01F0913E0182E08083E091390199
:1008E000F0913A011082E0913B01F0913C018FECD4
:1008F000808310924501E0914101F091420186E030
:100900008083E0913F01F09140018081806180838C
:10091000E0913F01F0914001808188608083E09107
:100920003F01F0914001808180688083E0913F0128
:10093000F091400180818F7D808380E0C82E80E02F
:10094000D82E82E00E94C2017C0190932C018093FA
:100950002B0183E00E94C20190932A018093290118
:100960008FE00E940C028C01909328018093270154
:100970008EE00E940C029093260180932501EF28BF
:1009800071F51A8219821C821B821E821D8260915F
:10099000D0017091D1016115710541F04091D401F0
:1009A0005091D501CE0101960E940B03B801CE01F2
:1009B00001960E94BE02811104C0CE0101960E94E0
:1009C0007C024D815E8169817A818DE291E00E9495
:1009D000B500CE0101960E948E020E9446028091CF
:1009E000290190912A01892B91F5009125011091FF
:1009F00026011A8219821C821B821E821D8260912E
:100A0000CA017091CB016115710541F04091CE0191
:100A10005091CF01CE0101960E940B03B801CE0187
:100A200001960E94BE02811104C0CE0101960E946F
:100A30007C024D815E8169817A818DE291E00E9424
:100A4000B500CE0101960E948E020E944602C1149A
:100A5000D10409F476CF0E941F01882309F471CFD5
:100A60000E9400006ECF8AEC91E00E948E0280ED21
:100A700091E00C948E02BB274A3031F4992322F482
:100A8000BDE2909581959F4F0C944705BB27FB01D4
:100A90005527AA27880F991FAA1FA41710F0A41B77
:100AA00083955051B9F7A05DAA3308F0A95DA193D1
:100AB000009779F7B111B1931192CB010C946005B5
:100AC000DC01FC01672F71917723E1F7329704C0B5
:100AD0007C916D9370836291AE17BF07C8F3089540
:100AE0002F923F924F925F926F927F928F929F923E
:100AF000AF92BF92CF92DF92EF92FF920F931F932C
:100B0000CF93DF93CDB7DEB7CA1BDB0B0FB6F894DC
:100B1000DEBF0FBECDBF09942A88398848885F841C
:100B20006E847D848C849B84AA84B984C884DF808D
:100B3000EE80FD800C811B81AA81B981CE0FD11D71
:100B40000FB6F894DEBF0FBECDBFED010895EE0FD6
:100B5000FF1F0590F491E02D09940F931F93CF93FD
:100B6000DF938230910510F482E090E0E091D801AB
:100B7000F091D90130E020E0B0E0A0E0309799F4A6
:100B80002115310509F44AC0281B390B24303105E1
:100B9000D8F58A819B816115710589F1FB019383E9
:100BA0008283FE0111C04081518102811381481767
:100BB0005907E0F04817590799F4109761F0129619
:100BC0000C93129713961C933296CF01DF91CF911D
:100BD0001F910F9108950093D8011093D901F4CF7C
:100BE0002115310551F04217530738F0A901DB01F7
:100BF0009A01BD01DF01F801C1CFEF01F9CF909358
:100C0000D9018093D801CDCFFE01E20FF31F81936C
:100C100091932250310939832883D7CF2091D6016F
:100C20003091D701232B41F420910201309103012F
:100C30003093D7012093D60120910001309101011A
:100C40002115310541F42DB73EB740910401509173
:100C50000501241B350BE091D601F091D701E21775
:100C6000F307A0F42E1B3F0B2817390778F0AC01CF
:100C70004E5F5F4F2417350748F04E0F5F1F5093AC
:100C8000D7014093D601819391939FCFF0E0E0E0AC
:100C90009CCFCF93DF930097E9F0FC01329713824A
:100CA0001282A091D801B091D901ED0130E020E08D
:100CB0001097A1F420813181820F931F2091D601DA
:100CC0003091D7012817390709F061C0F093D70197
:100CD000E093D601DF91CF910895EA01CE17DF07A7
:100CE000E8F54A815B819E0141155105B1F7E901A3
:100CF000FB83EA8349915991C40FD51FEC17FD0777
:100D000061F4808191810296840F951FE901998396
:100D10008883828193819B838A83F0E0E0E012964E
:100D20008D919C9113970097B9F52D913C91119756
:100D3000CD010296820F931F2091D6013091D701E9
:100D40002817390739F6309751F51092D9011092CA
:100D5000D801B093D701A093D601BCCFD383C2836F
:100D600040815181840F951FC817D90761F44E5FE8
:100D70005F4F88819981480F591F518340838A8131
:100D80009B81938382832115310509F0B0CFF093C5
:100D9000D901E093D8019ECFFD01DC01C0CF1382C1
:100DA0001282D7CFB0E0A0E0E8EDF6E00C94720537
:100DB0008C01009751F4CB010E94AD058C01C80154
:100DC000CDB7DEB7E0E10C948E05FC01E60FF71F0E
:100DD0009C0122503109E217F30708F49DC0D901A4
:100DE000CD91DC911197C617D70798F0C530D10582
:100DF00030F3CE0104978617970708F3C61BD70B6D
:100E00002297C193D1936D937C93CF010E944906A1
:100E1000D6CF5B01AC1ABD0A4C018C0E9D1EA09171
:100E2000D801B091D901512C412CF12CE12C109713
:100E300031F58091D6019091D7018815990509F077
:100E40005CC04616570608F058C08091000190918A
:100E50000101009741F48DB79EB740910401509174
:100E60000501841B950BE817F90708F055C0F093AE
:100E7000D701E093D601F90171836083A0CF8D91F2
:100E80009C91119712966C90129713967C901397E1
:100E9000A815B90559F56C0142E0C40ED11CCA145D
:100EA000DB0420F1AC014A195B09DA0112961597AF
:100EB00080F06282738251834083D9016D937C9369
:100EC000E114F10471F0D7011396FC93EE9312979D
:100ED00076CF22968C0F9D1FF90191838083F301B9
:100EE000EFCFF093D901E093D80169CF48165906A6
:100EF00008F42C017D01D3019ACFCB010E94AD05EE
:100F00007C01009749F0AE01B8010E948F07C8012B
:100F10000E944906870153CF10E000E050CFFB014B
:100F2000DC0102C001900D9241505040D8F7089565
:100F3000FB01DC0101900D920020E1F7089510E023
:100F4000C2E6D0E004C0FE010E94A7052196C33688
:080F5000D107C9F7F894FFCFA7
:100F58000000DA018000000000005501B500E20041
:0C0F6800A2011301F1000501630062000A
:00000001FF
