:100000000C9462000C948A000C948A000C948A0070
:100010000C948A000C948A000C948A000C948A0038
:100020000C948A000C948A000C948A000C948A0028
:100030000C948A000C948A000C948A000C948A0018
:100040000C9444030C948A000C9412030C94EC025C
:100050000C948A000C948A000C948A000C948A00F8
:100060000C948A000C948A000000000024002700F1
:100070002A0000000000250028002B0000000000DE
:1000800023002600290004040404040404040202DA
:100090000202020203030303030301020408102007
:1000A0004080010204081020010204081020000012
:1000B0000008000201000003040700000000000027
:1000C0000000D30311241FBECFEFD8E0DEBFCDBFA9
:1000D00011E0A0E0B1E0E8E3FBE002C005900D9282
:1000E000AE31B107D9F721E0AEE1B1E001C01D9218
:1000F000AE3CB207E1F710E0C2E6D0E004C02197C1
:10010000FE010E949405C136D107C9F70E941C0464
:100110000C949A050C940000AF92BF92CF92DF929C
:10012000EF92FF920F931F93CF93DF936C017B01AC
:100130008B01040F151FEB015E01AE18BF08C0173D
:10014000D10759F06991D601ED91FC910190F081B0
:10015000E02DC6010995892B79F7C501DF91CF9173
:100160001F910F91FF90EF90DF90CF90BF90AF90D5
:100170000895FC01538D448D252F30E0842F90E0AD
:10018000821B930B541710F0CF9608950197089592
:10019000FC01918D828D981761F0A28DAE0FBF2F5B
:1001A000B11D5D968C91928D9F5F9F73928F90E0B1
:1001B00008958FEF9FEF0895FC01918D828D981720
:1001C00031F0828DE80FF11D858D90E008958FEF5D
:1001D0009FEF0895FC01918D228D892F90E0805C26
:1001E0009F4F821B91098F73992708958DE291E0AB
:1001F0000E94EA0021E0892B09F420E0822F089573
:1002000080E090E0892B29F00E94F60081110C9487
:1002100000000895FC01A48DA80FB92FB11DA35AA9
:10022000BF4F2C91848D90E001968F739927848F16
:10023000A689B7892C93A089B1898C918370806439
:100240008C93938D848D981306C00288F389E02DDA
:1002500080818F7D80830895EF92FF920F931F938B
:10026000CF93DF93EC0181E0888F9B8D8C8D981369
:100270001AC0E889F989808185FF15C09FB7F89475
:10028000EE89FF896083E889F989808183708064C1
:1002900080839FBF81E090E0DF91CF911F910F910C
:1002A000FF90EF900895F62E0B8D10E00F5F1F4F1B
:1002B0000F731127E02E8C8D8E110CC00FB607FC2A
:1002C000FACFE889F989808185FFF5CFCE010E94B8
:1002D0000A01F1CFEB8DEC0FFD2FF11DE35AFF4F1B
:1002E000F0829FB7F8940B8FEA89FB898081806246
:1002F000CFCFCF93DF93EC01888D8823B9F0AA8903
:10030000BB89E889F9898C9185FD03C0808186FDD0
:100310000DC00FB607FCF7CF8C9185FFF2CF80811F
:1003200085FFEDCFCE010E940A01E9CFDF91CF9189
:100330000895833081F028F4813099F08230A9F05B
:1003400008958730A9F08830C9F08430B1F48091E5
:1003500080008F7D03C0809180008F778093800024
:10036000089584B58F7784BD089584B58F7DFBCFC4
:100370008091B0008F778093B00008958091B00095
:100380008F7DF9CF1F93CF93DF93282F30E0F901B2
:10039000E255FF4F8491F901E656FF4FD491F901E0
:1003A000EA57FF4FC491CC23A9F0162F81110E9468
:1003B0009901EC2FF0E0EE0FFF1FEE58FF4FA591D3
:1003C000B4918FB7F894EC91111108C0D095DE2349
:1003D000DC938FBFDF91CF911F910895DE2BF8CF73
:1003E000CF93DF9390E0FC01E656FF4F24918A57AC
:1003F0009F4FFC0184918823D1F090E0880F991FD2
:10040000FC01E859FF4FA591B491FC01EE58FF4F54
:10041000C591D49161110EC09FB7F8948C91E22FD1
:10042000E0958E238C932881E223E8839FBFDF91A0
:10043000CF9108958FB7F894EC91E22BEC938FBF96
:10044000F6CF3FB7F8948091230190912401A091B9
:100450002501B091260126B5A89B05C02F3F19F0B4
:100460000196A11DB11D3FBFBA2FA92F982F882734
:10047000BC01CD01620F711D811D911D42E0660F0F
:10048000771F881F991F4A95D1F708958F929F92E1
:10049000AF92BF92CF92DF92EF92FF924B015C013D
:1004A0000E9421026B017C010E9421026C197D09CE
:1004B0008E099F09683E734081059105A8F321E0EC
:1004C000821A9108A108B10888EEC80E83E0D81EF0
:1004D000E11CF11C81149104A104B10429F7FF90DF
:1004E000EF90DF90CF90BF90AF909F908F90089546
:1004F0000F931F93CF93C82F8B0161E00E94C2011D
:1005000028EE33E0D8010E948D0524EB30E040E076
:1005100050E00E943D0528513C4F4F4F5F4F220F46
:10052000331F220F331F25503109C9010197F1F7FD
:1005300060E08C2F0E94C20168EE73E080E090E0E2
:10054000CF911F910F910C9446020F931F93CF935D
:10055000DF93EC0160E088810E94C20183E090E0BB
:100560000197F1F761E088810E94C20183E290E087
:100570000197F1F760E088810E94C201898190E0D3
:10058000FC01E656FF4F6491FC01EA57FF4FE491EE
:10059000F0E0EE0FFF1FE458FF4F8591949100E4C7
:1005A00012E42FE030E0462F0E948E0361157105A2
:1005B0008105910529F06F5F7F4F8F4F9F4F9F708F
:1005C0002BE330E040E050E00E945C05C901DF9180
:1005D000CF911F910F9108951F920F920FB60F9216
:1005E00011242F933F934F935F936F937F938F9338
:1005F0009F93AF93BF93EF93FF938DE291E00E949F
:100600000A01FF91EF91BF91AF919F918F917F91DF
:100610006F915F914F913F912F910F900FBE0F906F
:100620001F9018951F920F920FB60F9211242F93BF
:100630008F939F93EF93FF93E0913D01F0913E01E3
:100640008081E0914301F091440182FD1BC09081C3
:10065000809146018F5F8F7320914701821741F08F
:10066000E0914601F0E0E35DFE4F958F80934601F7
:10067000FF91EF919F918F912F910F900FBE0F904F
:100680001F9018958081F4CF1F920F920FB60F9292
:1006900011242F933F938F939F93AF93BF93809198
:1006A0001F0190912001A0912101B0912201309170
:1006B0001E0123E0230F2D3758F50196A11DB11D12
:1006C00020931E0180931F0190932001A09321018C
:1006D000B09322018091230190912401A0912501E2
:1006E000B09126010196A11DB11D80932301909325
:1006F0002401A0932501B0932601BF91AF919F9152
:100700008F913F912F910F900FBE0F901F901895D2
:1007100026E8230F0296A11DB11DD2CFCF92DF9202
:10072000EF92FF920F931F93E82FF92F05C001500E
:1007300011092109310961F1908196239417B9F3C8
:1007400005C0015011092109310911F19081962349
:100750009413F7CFC12CD12CE12CF12C0AC08FEFD0
:10076000C81AD80AE80AF80A0C151D052E053F0517
:1007700079F080818623841791F36C2D7D2D8E2D49
:100780009F2D1F910F91FF90EF90DF90CF900895D4
:1007900060E070E080E090E01F910F91FF90EF909B
:1007A000DF90CF900895EDE2F1E01382128288EE9F
:1007B00093E0A0E0B0E084839583A683B78384E0D0
:1007C00091E09183808385EC90E09587848784EC29
:1007D00090E09787868780EC90E0918B808B81EC0E
:1007E00090E0938B828B82EC90E0958B848B86ECEF
:1007F00090E0978B868B118E128E138E148E61E093
:1008000082E00E94F00160E083E00E94F001ECECE5
:10081000F1E082E0808383E0818361E084E00E94F4
:10082000F00160E085E00E94F001EAECF1E084E094
:10083000808385E081830895789484B5826084BD47
:1008400084B5816084BD85B5826085BD85B58160D4
:1008500085BD80916E00816080936E001092810052
:10086000809181008260809381008091810081600D
:1008700080938100809180008160809380008091CE
:10088000B10084608093B1008091B000816080935A
:10089000B00080917A00846080937A0080917A0021
:1008A000826080937A0080917A00816080937A00E0
:1008B00080917A00806880937A001092C100E09164
:1008C0003D01F0913E0182E08083E0913901F09199
:1008D0003A011082E0913B01F0913C018FEC808362
:1008E00010924501E0914101F091420186E0808340
:1008F000E0913F01F0914001808180618083E0912F
:100900003F01F0914001808188608083E0913F0148
:10091000F0914001808180688083E0913F01F091F7
:10092000400180818F7D808361E089E00E94F00139
:1009300061E08AE00E94F00160E08DE00E94F00139
:100940000BEB10E097EAE92E90E0F92E23E9C22E96
:1009500020E0D22E30E0A32E30E0B32E8824839402
:10096000912CF8018491F701C491F601D491DD2313
:1009700009F443C081110E949901ED2FF0E0EE0FC0
:10098000FF1FE458FF4FA591B4918C91C82331E02B
:1009900020E009F430E0832F922F20912B01309139
:1009A0002C0170E060E0232B59F589E090E00E9473
:1009B00078026AE570E08AE090E00E94780260EADE
:1009C0007FE080E090E00E94460290922C018092AD
:1009D0002B014AE050E062E171E08DE291E00E947B
:1009E0008C00A114B10409F4BCCF0E94F600882346
:1009F00009F4B7CF0E940000B4CF90E080E0CDCFE3
:100A0000892B59F489E090E00E9478026AE570E051
:100A10008AE090E00E947802E4CF89E090E00E94B2
:100A200078026AE570E08AE090E00E9478028AEC41
:100A300091E00E94A50290932A01809329018CECF9
:100A400091E00E94A502EC01909328018093270178
:100A50008091290190912A016AE570E0459714F090
:100A600070E060E089E090E00E94780270E060E071
:100A70006E9774F664EB70E0CBCF052E97FB1EF4F7
:100A800000940E94540557FD07D00E945C0507FCA6
:100A900003D04EF40C945405509540953095219513
:100AA0003F4F4F4F5F4F089590958095709561959A
:100AB0007F4F8F4F9F4F0895A1E21A2EAA1BBB1B99
:100AC000FD010DC0AA1FBB1FEE1FFF1FA217B3071A
:100AD000E407F50720F0A21BB30BE40BF50B661F30
:100AE000771F881F991F1A9469F7609570958095F4
:100AF00090959B01AC01BD01CF010895A29FB0016B
:100B0000B39FC001A39F700D811D1124911DB29F41
:100B1000700D811D1124911D08950E947E05B7FF5F
:100B20000895821B930B0895EE0FFF1F0590F4911B
:080B3000E02D0994F894FFCFB9
:100B3800000000002C018C00B9007901EA00C8000F
:0E0B4800DC004C6967616E646F2E2E2E00007B
:00000001FF
