:100000000C9474050C949C050C949C050C949C0514
:100010000C949C050C949C050C949C050C94631505
:100020000C949C050C949C050C949C050C949C05CC
:100030000C949C050C949C050C949C050C949C05BC
:100040000C943D160C949C050C940B160C94E51521
:100050000C949C050C949C050C949C050C949C059C
:100060000C9487160C949C0508000000BE9224494D
:10007000123EABAAAA2ABECDCCCC4C3E00000080DA
:10008000BEABAAAAAA3E00000000BF000000803F4D
:100090000000000000084178D3BB4387D1133D190D
:1000A0000E3CC3BD4282AD2B3E68EC8276BED98F3A
:1000B000E1A93E4C80EFFFBE01C4FF7F3F0000007E
:1000C0000000000103070F1F3F7F0080C0E0F0F831
:1000D000FCFE00000000003E5B4F5B3E3E6B4F6B42
:1000E0003E1C3E7C3E1C183C7E3C181C577D571C19
:1000F0001C5E7F5E1C00183C1800FFE7C3E7FF0092
:1001000018241800FFE7DBE7FF30483A060E2629DF
:10011000792926407F050507407F05253F5A3CE7A2
:100120003C5A7F3E1C1C08081C1C3E7F14227F2268
:10013000145F5F005F5F06097F017F006689956A33
:10014000606060606094A2FFA29408047E040810BE
:10015000207E201008082A1C08081C2A08081E10E7
:100160001010100C1E0C1E0C30383E3830060E3E9F
:100170000E06000000000000005F000000070007FE
:1001800000147F147F14242A7F2A12231308646228
:1001900036495620500008070300001C2241000089
:1001A00041221C002A1C7F1C2A08083E08080080E7
:1001B000703000080808080800006060002010087F
:1001C00004023E5149453E00427F40007249494980
:1001D000462141494D331814127F102745454539B2
:1001E0003C4A4949314121110907364949493646B6
:1001F0004949291E00001400000040340000000896
:100200001422411414141414004122140802015938
:1002100009063E415D594E7C1211127C7F494949C5
:10022000363E414141227F4141413E7F494949415A
:100230007F090909013E414151737F0808087F0089
:10024000417F41002040413F017F081422417F400F
:100250004040407F021C027F7F0408107F3E4141E6
:10026000413E7F090909063E4151215E7F09192956
:1002700046264949493203017F01033F4040403F40
:100280001F2040201F3F4038403F63140814630381
:10029000047804036159494D43007F414141020400
:1002A000081020004141417F040201020440404007
:1002B0004040000307080020545478407F284444FD
:1002C000383844444428384444287F385454541817
:1002D00000087E090218A4A49C787F080404780012
:1002E000447D40002040403D007F102844000041F4
:1002F0007F40007C047804787C0804047838444407
:100300004438FC1824241818242418FC7C080404FD
:1003100008485454542404043F44243C4040207C66
:100320001C2040201C3C4030403C44281028444CB9
:100330009090907C4464544C440008364100000086
:10034000770000004136080002010204023C262327
:10035000263C1EA1A161123A4040207A38545455DF
:1003600059215555794122545478422155547840A9
:1003700020545579400C1E52721239555555593931
:100380005454545939555454580000457C41000286
:10039000457D420001457C407D1211127DF02825EB
:1003A00028F07C545545002054547C547C0A097F25
:1003B0004932494949323A4444443A324A48483039
:1003C0003A4141217A3A42402078009DA0A07D3DEB
:1003D0004242423D3D4040403D3C24FF2424487E73
:1003E0004943662B2FFC2F2BFF0929F620C0887E5E
:1003F000090320545479410000447D413048484A63
:1004000032384040227A007A0A0A727D0D19317D15
:100410002629292F28262929292630484D402038E9
:100420000808080808080808382F10C8ACBA2F10A8
:100430002834FA00007B000008142A142222142A0F
:1004400014085500550055AA55AA55AAFF55FF5541
:10045000FF000000FF00101010FF00141414FF0034
:100460001010FF00FF1010F010F0141414FC001412
:1004700014F700FF0000FF00FF1414F404FC141430
:1004800017101F10101F101F1414141F001010102D
:10049000F0000000001F101010101F10101010F0BE
:1004A00010000000FF101010101010101010FF109E
:1004B000000000FF140000FF00FF00001F101700E5
:1004C00000FC04F414141710171414F404F40000BE
:1004D000FF00F714141414141414F700F714141470
:1004E000171410101F101F141414F4141010F0100F
:1004F000F000001F101F0000001F14000000FC147B
:100500000000F010F01010FF10FF141414FF14106E
:1005100010101F00000000F010FFFFFFFFFFF0F0C1
:10052000F0F0F0FFFFFF0000000000FFFF0F0F0FD3
:100530000F0F3844443844FC4A4A4A347E020206CB
:1005400006027E027E0263554941633844443C04FE
:10055000407E201E2006027E020299A5E7A5991C76
:100560002A492A1C4C7201724C304A4D4D30304899
:10057000784830BC625A463D3E494949007E0101F7
:10058000017E2A2A2A2A2A44445F444440514A448C
:100590004040444A51400000FF0103E080FF00005A
:1005A00008086B6B083612362436060F090F060052
:1005B0000018180000001010003040FF0101001F5B
:1005C00001011E00191D1712003C3C3C3C000000BC
:1005D00000000000000023002600290000000008A1
:1005E00000020100000304070000000000000000FA
:1005F00000000000240027002A00DB40A4A62EAF44
:100600002000A1C8D300408DAED580A800006000B6
:1006100000000000000000000000000000E00000FA
:10062000000000000000000000000001E0000000E9
:100630000000000000000000000001F000000000C9
:1006400000000000000000000003F00000000000B7
:10065000000000000000000007F0000000000000A3
:100660000000000000000007F8000000000000008B
:100670000000000000000FF800000003C0007E0032
:100680000001E0007F0FF800000003C000FE000042
:1006900001E000FFEFF800000003C000FE000001D1
:1006A000E000FFFFF800000003C000F00000000FB2
:1006B000007FFE7FC0000003C000F00000000F00BC
:1006C0003FFE7FF83FF1FBCFFCFEF3BC3DEFE01FA8
:1006D000FE7FFF7FFBFFDFFEFEFFBC3DEFE01FC69E
:1006E000FFFF7FFBFFDFFEFEFFBC3DEFE00FE3C738
:1006F000FE787BC3DE1EF0FFBC3DEF0007FF87FCEA
:10070000787BC3DE1EF0F83C3DEF0001FFFFF000F8
:100710007BC3C01EF0F03C3DEF0001F37FE03FFBE8
:10072000C3CFFEF0F03C3DEF0003E33F807FFBC30F
:10073000DFFEF0F03C3DEF0007E73C00787BC3DED6
:100740001EF0F03C3DEF0007FFBE00787BC3DE1ECD
:10075000F0F03C3DEF0007FFFE00787BC3DE1EF0AB
:10076000F03C3DEF000FFFFE007FFBFFDFFEF0F0EF
:100770003FFDEFE00FFFFF007FFBFFDFFEF0F03FEC
:10078000FDEFE00FF9FF003E79F9CF9EF0F01F3D3D
:10079000E7E01FF1FF000000000000000000000083
:1007A000001F80FF007FFFFFFFFFFFFFFFFFFFE055
:1007B0001C007F007FFFFFFFFEB46D888D18E000F6
:1007C000001F007FFFFFFFFE95AD7DB577E00000C5
:1007D0000F007FFFFFFFFEA5AD9D8D19E000000615
:1007E000007FFFFFFFFEB5ADEDB57EE0000000002D
:1007F00000018000000000000000000003800000F5
:100800000000000000000007C00000000000000021
:10081000000007C00000000000000000000FC00042
:1008200000000000000000001FE0000000000000C9
:100830000000001FE00000000000000000003FE09A
:100840000000000000000000003FF0000000000079
:10085000000000007FF0000000000000001FF87F93
:10086000F0000000000000003FFE7FF000000000EC
:100870000000003FFF7FF0000000000000001FFFAD
:10088000FBE0000000000000000FFFF9FFC00000C7
:10089000000000000FFFF9FFF80000000000000753
:1008A000FFF1FFFF00000000000003FC73FFFF806A
:1008B000000000000001FE3FFFFF8000000000007C
:1008C00000FF1E0FFF000000000000007FFE1FFC65
:1008D000000000000000003FFFFFF80000000000E3
:1008E00000000FDFFFE0000000000000001F19FF04
:1008F000C0000000000000003F3CFF0000000000BE
:100900000000007E7CF800000000000000007FFE78
:100910007C0000000000000000FFFFFC0000000061
:1009200000000000FFFFFE0000000000000000FFCC
:10093000FFFE0000000000000001FFEFFE000000CD
:100940000000000001FFCFFE0000000000000003D7
:10095000FF07FE0000000000000003FC07FE00008F
:10096000000000000003F003FE0000000000000093
:10097000018000FE000000000000000000007E007A
:100980000000000000000000003E00000000000029
:10099000000000000C000000000000078000FC00C8
:1009A0000003C0000000078001FC000003C000003D
:1009B00000078001FC000003C0000000078001E088
:1009C0000000001E000000078001E00000001E0083
:1009D0007FE3F79FF9FDE7787BDFC0FFF7FFBFFDFF
:1009E000FDFF787BDFC0FFF7FFBFFDFDFF787BDFFA
:1009F000C0F0F787BC3DE1FF787BDE00F0F787BCF5
:100A00003DE1F0787BDE0000F787803DE1E0787B18
:100A1000DE007FF7879FFDE1E0787BDE00FFF78750
:100A2000BFFDE1E0787BDE00F0F787BC3DE1E078D8
:100A30007BDE00F0F787BC3DE1E0787BDE00F0F77D
:100A400087BC3DE1E0787BDE00FFF7FFBFFDE1E022
:100A50007FFBDFC0FFF7FFBFFDE1E07FFBDFC07C76
:100A6000F3F39F3DE1E03E7BCFC0000000000000BB
:100A70000000000000FFFFFFFFFFFFFFFFFFFFC0C0
:100A8000FFFFFFFFFD68DB111A31C0FFFFFFFFFD15
:100A90002B5AFB6AEFC0FFFFFFFFFD4B5B3B1A3396
:100AA000C0FFFFFFFFFD6B5BDB6AFDC02200FF2183
:100AB00000010204081020408001020408102001F7
:100AC000020408102000000000250028002B00046C
:100AD00004040404040404020202020202030303E5
:100AE00003030302A6179C2011241FBECFEFD8E0FA
:100AF000DEBFCDBF12E0A0E0B1E0E4EAF9E402C05D
:100B000005900D92AE31B107D9F723E0AEE1B2E026
:100B100001C01D92A13FB207E1F715E0C3E7D5E0A0
:100B200004C02197FE010E948E23C237D107C9F766
:100B30000E9429180C94C5240C940000E4E0F3E012
:100B4000A089B18982E08C93A485B5851C92A68585
:100B5000B7858FEC8C93108EA489B58986E08C9331
:100B6000A289B3898C9180618C93A289B3898C917D
:100B700088608C93A289B3898C9180688C93028859
:100B8000F389E02D80818F7D8083089508950895F5
:100B90000895AF92BF92CF92DF92EF92FF920F93A0
:100BA0001F93CF93DF936C017B018B01040F151F03
:100BB000EB015E01AE18BF08C017D10759F069916B
:100BC000D601ED91FC910190F081E02DC6010995CF
:100BD000892B79F7C501DF91CF911F910F91FF907C
:100BE000EF90DF90CF90BF90AF900895FC01538DB0
:100BF000448D252F30E0842F90E0821B930B5417F7
:100C000010F0CF96089501970895FC01918D828D83
:100C1000981761F0A28DAE0FBF2FB11D5D968C911C
:100C2000928D9F5F9F73928F90E008958FEF9FEF5B
:100C30000895FC01918D828D981731F0828DE80F17
:100C4000F11D858D90E008958FEF9FEF0895FC01D1
:100C5000918D228D892F90E0805C9F4F821B91099E
:100C60008F739927089584E093E00E94270621E07E
:100C7000892B09F420E0822F089580E090E0892BF1
:100C800029F00E94330681110C9400000895FC01A4
:100C9000A48DA80FB92FB11DA35ABF4F2C91848DDD
:100CA00090E001968F739927848FA689B7892C933A
:100CB000A089B1898C91837080648C93938D848D8D
:100CC000981306C00288F389E02D80818F7D808390
:100CD0000895EF92FF920F931F93CF93DF93EC0150
:100CE00081E0888F9B8D8C8D98131AC0E889F989D3
:100CF000808185FF15C09FB7F894EE89FF896083D6
:100D0000E889F98980818370806480839FBF81E056
:100D100090E0DF91CF911F910F91FF90EF90089598
:100D2000F62E0B8D10E00F5F1F4F0F731127E02E73
:100D30008C8D8E110CC00FB607FCFACFE889F989AB
:100D4000808185FFF5CFCE010E944706F1CFEB8D64
:100D5000EC0FFD2FF11DE35AFF4FF0829FB7F8947F
:100D60000B8FEA89FB8980818062CFCFCF93DF939D
:100D7000EC01888D8823B9F0AA89BB89E889F989B3
:100D80008C9185FD03C0808186FD0DC00FB607FCE8
:100D9000F7CF8C9185FFF2CF808185FFEDCFCE011B
:100DA0000E944706E9CFDF91CF910895833081F00B
:100DB00028F4813099F08230A9F008958730A9F0A5
:100DC0008830C9F08430B1F4809180008F7D03C0F9
:100DD000809180008F7780938000089584B58F770D
:100DE00084BD089584B58F7DFBCF8091B0008F774F
:100DF0008093B00008958091B0008F7DF9CFCF939C
:100E0000DF93282F30E0F901E452FA4F8491F90181
:100E1000EF54F54FD491F901E153F54FC491CC2330
:100E2000A1F081110E94D606EC2FF0E0EE0FFF1F1B
:100E3000EE52FA4FA591B491EC91ED2381E090E050
:100E400009F480E0DF91CF91089580E090E0FACF3F
:100E50001F93CF93DF93282F30E0F901E452FA4F2C
:100E60008491F901EF54F54FD491F901E153F54F15
:100E7000C491CC23A9F0162F81110E94D606EC2F25
:100E8000F0E0EE0FFF1FEB53F54FA591B4918FB734
:100E9000F894EC91111108C0D095DE23DC938FBF3C
:100EA000DF91CF911F910895DE2BF8CFCF93DF9381
:100EB00090E0FC01EF54F54F24918153954FFC01D4
:100EC00084918823D1F090E0880F991FFC01E051B4
:100ED000FA4FA591B491FC01EB53F54FC591D49114
:100EE000623071F49FB7F8943C91822F80958323F0
:100EF0008C93E8812E2B28839FBFDF91CF9108959B
:100F00008FB7F894EC912E2B2C938FBFF6CF3FB771
:100F1000F8948091D3029091D402A091D502B0911F
:100F2000D60226B5A89B05C02F3F19F00196A11D3A
:100F3000B11D3FBFBA2FA92F982F8827BC01CD0123
:100F4000620F711D811D911D42E0660F771F881F82
:100F5000991F4A95D1F708958F929F92AF92BF92B1
:100F6000CF92DF92EF92FF924B015C010E948707C4
:100F70006B017C010E9487076C197D098E099F090E
:100F8000683E734081059105A8F321E0821A91081B
:100F9000A108B10888EEC80E83E0D81EE11CF11C40
:100FA00081149104A104B10429F7FF90EF90DF9020
:100FB000CF90BF90AF909F908F9008952FB7F894E7
:100FC0006091CF027091D0028091D1029091D202B3
:100FD0002FBF089520918402260F3327331F21321B
:100FE0003105ECF42091A802FC0190E080E024306F
:100FF00069F082E00895A09184022191AC014C59DE
:101000005D4FA40FB52FB11D2C930196861798F351
:1010100080918402680F6093840280E0089581E0EB
:1010200008951092A80281E08093AA021092A9026A
:1010300061E082E10E94280761E083E10E942807C5
:10104000E9EBF0E080818E7F808380818D7F8083DB
:1010500088E48093B80085E48093BC000895CF9322
:10106000DF9391E0909363028823B9F0C091B800B8
:10107000D091BA008091BC008A7B8093BC0060E074
:1010800082E10E94280760E083E10E9428070E9415
:101090001108D093BA00C093B800DF91CF910895A2
:1010A000E091DD028091DC02E81730F4F0E0E25CD0
:1010B000FD4F808190E008958FEF9FEF089590910C
:1010C000DD028091DC022FEF3FEF981748F4E92F03
:1010D000F0E0E25CFD4F208130E09F5F9093DD0205
:1010E000C90108958091DC029091DD02891B990B62
:1010F0000895CF92DF92EF92FF920F931F93CF93B9
:10110000DF937C01CB018A0120910303222389F024
:10111000EB016B01C40ED51ECC15DD0569F069919C
:10112000D701ED91FC910190F081E02DC701099567
:10113000F3CF642F0E94EA07C801DF91CF911F917E
:101140000F91FF90EF90DF90CF900895CF93DF93B2
:101150001F92CDB7DEB76983209103032223F9F0F4
:1011600020910003203258F021E030E0FC0133836D
:10117000228390E080E00F90DF91CF9108958091DD
:101180000103E82FF0E0E25EFD4F998190838F5FCD
:10119000809301038093000381E090E0ECCF61E055
:1011A000CE0101960E94EA07F7CFCF92DF92EF922D
:1011B000FF920F931F93CF93DF93D091000381E0B1
:1011C000D13208F09CC0C09102030E9487076B01D6
:1011D0007C018091A80281116CC082E08093A802FA
:1011E00081E08093AA028FEF8093A7021092CC0235
:1011F000D093CB02AEE1B2E0EBEAF2E080E0D813AC
:101200008DC01092CD028091CD02CC0FC82BC0931F
:10121000CD028091A902813009F084C01092A90208
:101220000E9487076B017C018091CD028093BB00F7
:1012300080915F0290916002A0916102B091620280
:10124000892B8A2B8B2BA1F00E94870700915F02CC
:101250001091600220916102309162026C197D0947
:101260008E099F09061717072807390708F442C097
:101270008091BC0083FDD8CF85EC8093BC000E9498
:1012800087076B017C018091A802823009F44CC071
:101290008091A7028F3F09F469C08091A702803234
:1012A00009F466C08091A702803309F463C084E02A
:1012B00026C080915F0290916002A0916102B0917E
:1012C0006202892B8A2B8B2B09F483CF0E9487071C
:1012D00000915F02109160022091610230916202E0
:1012E0006C197D098E099F0906171707280739070A
:1012F00008F06FCF80915E020E942F0885E0109267
:1013000001031092000310920303DF91CF911F910C
:101310000F91FF90EF90DF90CF9008959D91919362
:101320008F5F6DCF85EEA9CF80915F0290916002B3
:10133000A0916102B0916202892B8A2B8B2B09F458
:10134000A2CF0E94870700915F0210916002209156
:101350006102309162026C197D098E099F0906179E
:1013600017072807390708F08ECFC4CF80E0C7CF12
:1013700082E0C5CF83E0C3CF0895FC016370668B24
:101380008481958126813781613039F0633029F07D
:1013900091878087338722870895318720879387B5
:1013A000828708952F923F924F925F926F927F9221
:1013B0008F929F92AF92BF92CF92DF92EF92FF9265
:1013C0000F931F93CF93DF93CDB7DEB76A970FB616
:1013D000F894DEBF0FBECDBF9A8F898F7A83698361
:1013E0004A01D22E18870F833701BC2CDC01599695
:1013F0002D913C915A972115310509F015C1189688
:101400008D919C911997681779070CF0D7C11A969E
:101410008D919C91481759070CF0D0C14C2C512C40
:10142000B6E0CB9E600D711D11247C876B8716166C
:1014300017060CF0C3C1EA2DF0E0FA87E98793E0C4
:10144000EE0FFF1F9A95E1F7F88BEF87CF01840F1E
:10145000951F181619060CF0B1C1A98DBA8D5896B2
:101460008C91811104C0BFEABD1508F4D394A98DF5
:10147000BA8DED91FC9111970284F385E02DCD0199
:101480000995B5E0DB9EC0011124E981FA81FC8356
:10149000EB83312C212C9C012E523F4F388F2F8B08
:1014A0004A2D50E05E8B4D8BEF89F88DE20DF31DD8
:1014B00044919E828D82D12CC12C69817A81620DEA
:1014C000731D7A8B698B842F90E09C8B8B8BE98DBD
:1014D000FA8DA081B18140FF82C0F1E0BF126FC0E0
:1014E000AF126DC01C96ED91FC912F813885A4013F
:1014F0004C0D5D1D69897A89898D9A8D0995EB89D5
:10150000FC89F595E7954E2F5FEFC51AD50A6D81D9
:101510007E818D899E89680F791F7E836D8398E017
:10152000C916D10481F6AFEF2A1A3A0AEB81FC8181
:10153000E40DF51DFC83EB83F5E02F16310409F073
:10154000B3CF2F81388526153705B9F0A98DBA8D0F
:10155000ED91FC91B1E0BB1257C0AB1255C069814F
:101560007A816B5F7F4F0088F189E02D830128E04D
:1015700030E0A401898D9A8D0995A98DBA8DED91E0
:10158000FC9111970688F789E02DCD016A960FB678
:10159000F894DEBF0FBECDBFDF91CF911F910F91A9
:1015A000FF90EF90DF90CF90BF90AF909F908F9083
:1015B0007F906F905F904F903F902F9009941E9670
:1015C000ED91FC91EF80F88409851A8592014D8197
:1015D0005E816B817C81898D9A8D099590CF2F8159
:1015E00038852615370509F48ACF31E0B31207C0D4
:1015F000A31205C01C96ED91FC91930178CF1E9625
:10160000ED91FC917301E0CF6B857C8564197509C0
:101610000684F785E02D73010F8518899201A401D6
:10162000898D9A8D0995A9CFF901349694913297B5
:1016300045915491D91AB7E0DB9E400D511D1124FC
:10164000F901259134913C8B2B8BFA012590349034
:10165000FA013296749031963491398B32966490B7
:101660003196449041E04C1518F04A1508F07FC0BF
:10167000662D062C000C770B7C836B83842D042C49
:10168000000C990B9E838D83A98DBA8DED91FC91F1
:1016900011970284F385E02DCD010995512CD12CB1
:1016A000C12CEA2DF0E0FA87E9872B2D30E03C874A
:1016B0002B87A401440D511D47FC5A95588F4F8B21
:1016C00069817A81660D711D67FC7A957E876D87C9
:1016D0007989C71608F051CF2C2D30E04D815E81FD
:1016E000420F531FA985BA854A9FC0014B9F900D99
:1016F0005A9F900D1124FC01E80DF91DF88BEF871E
:10170000852D612C4F89588D420F531F5E8B4D8B59
:10171000671408F050C044244394480E877041F485
:10172000C1010196EB89FC89E20DF31DD4901C01E7
:10173000D7FE19C0A98DBA8DED91FC91662D70E090
:10174000B1E0BB1219C0AB1217C02D853E85620FE8
:10175000731F0484F585E02D2F8138854D895E89BE
:10176000898D9A8D0995DD0C6394842DD1CF1E82CD
:101770001D821C821B8288CF4B815C81640F751F88
:10178000AB85BC856A9FC0016B9F900D7A9F900DC1
:10179000112469817A81680F791F0684F785E02D0D
:1017A000EF80F88409851A859D014F855889898DB8
:1017B0009A8D0995D8CF570CC3948ACF6A960FB6E5
:1017C000F894DEBF0FBECDBFDF91CF911F910F9177
:1017D000FF90EF90DF90CF90BF90AF909F908F9051
:1017E0007F906F905F904F903F902F9008958F92D1
:1017F0009F92AF92CF92EF92FF920F931F93CF934E
:10180000DF93EC01262F898D9A8D009709F051C046
:101810006A30D1F41D861C868D8948E0849F900132
:1018200011248E859F85820F931F9F878E8781E06D
:1018300090E0DF91CF911F910F91FF90EF90CF90AB
:10184000AF909F908F9008956D3089F3CC88AD88CC
:101850008F898823C1F08C859D8536E0C39E800DDD
:10186000911D1124488559854817590764F44E8500
:101870005F851D861C8638E0A39EC0011124840F5D
:10188000951F9F878E87EA88FB88088919894E856E
:101890005F856C857D85CE010E94D2092C898C855F
:1018A0009D8546E0249F800D911D11249D878C8786
:1018B000BECF6A3069F41D861C86FC013896E4911F
:1018C0002D898E859F85E29F800D911D1124ADCFBE
:1018D0006D3009F4ACCFFC0134963491631708F4F1
:1018E000A6CF3296E491E61708F4A1CFFC01329618
:1018F00085909490462F431B342F47E0349F800CF3
:10190000911C1124F401329634913196E4913323E1
:10191000A9F1EE2399F1CC88F4013596E491AD88D4
:101920004F89442301F10E2E000CFF0BE30FF11D34
:10193000CE9EA001CF9E500D11246C857D85460F53
:10194000571F68857985641775076CF44E855F8528
:101950001D861C86FC013896E491AE9E400D511DFB
:1019600011245F874E87EA88FB88088919894E858C
:101970005F856C857D85CE010E94D209F401349685
:10198000E4912C898C859D85E29F800D911D112409
:101990008DCF6F927F928F929F92AF92BF92CF9294
:1019A000DF92EF92FF920F931F93CF93DF93EC019F
:1019B0006B015A0139014801E881F9810284F385FC
:1019C000E02D0995E881F9810288F389E02D8701EE
:1019D0009301A501B601CE010995A501480D591D38
:1019E00041505109E881F9810288F389E02D930182
:1019F000B601CE010995E881F9810088F189E02DD1
:101A00009401A501B601CE010995C60CD71CB601FB
:101A100061507109E881F9810088F189E02D940114
:101A2000A501CE010995E881F9810688F789E02DA5
:101A3000CE01DF91CF911F910F91FF90EF90DF903A
:101A4000CF90BF90AF909F908F907F906F900994B0
:101A50006F927F928F929F92AF92BF92CF92DF92BE
:101A6000EF92FF920F931F93CF93DF935C01EB01F3
:101A70006A01490138018701DC01ED91FC9162178F
:101A8000730719F5641675062CF0962D872D3A010B
:101A9000C92ED82E9601261937092F5F3F4F048C87
:101AA000F58DE02DA301BE01C5010995DF91CF9110
:101AB0001F910F91FF90EF90DF90CF90BF90AF906C
:101AC0009F908F907F906F9008954615570591F4E1
:101AD0002617370724F0892D4B01C22FD82F9E01DE
:101AE000281939092F5F3F4F068CF78DE02DA6018D
:101AF000B401DACF0284F385E02D0995D501ED918B
:101B0000FC910488F589E02D83019401A601BE01B2
:101B1000C5010995D501ED91FC910688F789E02D65
:101B2000C501DF91CF911F910F91FF90EF90DF9052
:101B3000CF90BF90AF909F908F907F906F900994BF
:101B4000EF92FF920F931F93DC011A960D911C9157
:101B50001B9718962D913C911997ED91FC9100A03F
:101B6000F1A1E02D7B0150E040E070E060E00995DC
:101B70001F910F91FF90EF9008954F925F926F9297
:101B80007F928F929F92AF92BF92CF92DF92EF920D
:101B9000FF920F931F93CF93DF936C012B015A0198
:101BA00039014801DC01ED91FC910284F385E02DBF
:101BB0000995E201640C751CD601ED91FC91C615E6
:101BC000D7055CF40088F189E02D87019401A50117
:101BD000BE01C60109952196EFCF0688F789E02D51
:101BE000C601DF91CF911F910F91FF90EF90DF9091
:101BF000CF90BF90AF909F908F907F906F905F90AD
:101C00004F9009948F929F92AF92BF92CF92DF92A2
:101C1000EF92FF920F931F93CF93DF93EC015B0141
:101C20004A016901E881F9810284F385E02D099573
:101C300095012C0D3D1D21503109E881F981048861
:101C4000F589E02D78018401A401B501CE01099543
:101C5000E881F9810688F789E02DCE01DF91CF91E7
:101C60001F910F91FF90EF90DF90CF90BF90AF90BA
:101C70009F908F9009948F929F92AF92BF92CF9234
:101C8000DF92EF92FF920F931F93CF93DF93EC01BC
:101C90005B014A0169017801E881F9810284F385D9
:101CA000E02D0995C80CD91C860101501109E88165
:101CB000F9810488F589E02D9501A401B501CE01D3
:101CC0000995E881F9810688F789E02DCE01DF9139
:101CD000CF911F910F91FF90EF90DF90CF90BF9029
:101CE000AF909F908F900994EF92FF920F931F9364
:101CF000DC01ED91FC9100A0F1A1E02D09951F916F
:101D00000F91FF90EF9008950F931F93DC01ED91D9
:101D1000FC91068CF78DE02D09951F910F91089588
:101D20000F931F93DC01ED91FC91048CF58DE02D58
:101D300009951F910F910895DC01ED91FC910084AC
:101D4000F185E02D09943F924F925F926F927F92BE
:101D50008F929F92AF92BF92CF92DF92EF92FF92BB
:101D60000F931F93CF93DF935C017B014A016901BD
:101D7000390187E0680E711C93E0759467949A9519
:101D8000E1F72B01400E511E10E000E0312CD0E0B5
:101D9000C0E0CE0187709927330C892B59F4FE01DE
:101DA00083E0F595E7958A95E1F7E00FF11FE80DDF
:101DB000F91D349037FE0AC021E030E0A701B501DB
:101DC0006C0F7D1F8DEA93E00E949C0E2196CC162D
:101DD000DD06F9F68FEFE81AF80A060D171DE41470
:101DE000F504A9F6DF91CF911F910F91FF90EF902D
:101DF000DF90CF90BF90AF909F908F907F906F902B
:101E00005F904F903F9008952F923F924F925F9234
:101E10006F927F928F929F92AF92BF92CF92DF92FA
:101E2000EF92FF920F931F93CF93DF9300D000D0D8
:101E300000D0CDB7DEB73C016A013E832D83FC8222
:101E4000EB825801A41AB50AB7FE03C0B194A1945D
:101E5000B1088D809E80861A970A97FE03C09194E0
:101E6000819491088A149B045CF0902F812F0D813E
:101E70001E819D838E839C2D8D2D6B01692F782F64
:101E80000C151D055CF09D818E817E836D83692F0D
:101E9000782F902F812F8601C92ED82E1601201A57
:101EA000310A2B012D813E81421A530A57FE03C08D
:101EB000519441945108710137FE03C03FEFE31A7A
:101EC000F30AF594E7948D819E81861797075CF558
:101ED000A1E0B0E0BA83A983C016D1064CF1D301CA
:101EE000ED91FC910484F585E02D2B813C81A801C6
:101EF0006D817E818A149B041CF04D815E81B80146
:101F0000C3010995E418F508F7FE0AC02D813E814A
:101F100089819A81280F391F3E832D83E20CF31C9F
:101F20000F5F1F4FD9CF2FEF3FEF3A832983D4CFD5
:101F300026960FB6F894DEBF0FBECDBFDF91CF91CE
:101F40001F910F91FF90EF90DF90CF90BF90AF90D7
:101F50009F908F907F906F905F904F903F902F90C9
:101F60000895EF92FF920F931F93CF93DF93EC01AD
:101F7000EC80FD806E157F050CF070C057FF04C02B
:101F8000240F351F50E040E08E819F81FA01E20F5F
:101F9000F31F8E179F071CF49C01241B350B121690
:101FA00013060CF05BC0922F842F8695869586953C
:101FB0008E9DD0018F9DB00D11246A0F7B1FAF8DB8
:101FC000B8A1A60FB71F477049F188E0841B482FBE
:101FD000682F70E0FB01E653FF4FE491281708F0EB
:101FE00063C0621B71092FEF30E002C03595279561
:101FF0006A95E2F7E2230130110539F0B0F10230C1
:10200000110561F58C91E82702C08C91E82BEC93C7
:10201000941720F12C813D81A20FB31FE92FE41BFF
:10202000E83078F00230110521F58E2F9C919095C3
:102030009C932C813D81A20FB31F88508830B0F74C
:10204000E770EE2359F0F0E0EE53FF4FE4910130DA
:102050001105F9F010F10230110519F1DF91CF915E
:102060001F910F91FF90EF900895E0958C91E823D8
:10207000CECF81E00115110509F480E081959E2FF6
:102080008C932C813D81A20FB31F98509830C0F7DC
:10209000D7CF8C91E82BEC93E1CFE0958C91E8239E
:1020A000FACF8C91E827F7CF0130110509F4ADCFB5
:1020B000E0F20230110509F4A5CFAE0DBF1DAECF81
:1020C0000F931F93CF93DF9377FF04C0260F371F23
:1020D00070E060E0DC011496CD91DC91FB01E20F31
:1020E000F31FCE17DF071CF49E01261B370B1216B9
:1020F00013064CF5FA0157FD3796A3E0F595E795E1
:10210000AA95E1F7EC9FD001ED9FB00DFC9FB00DBB
:1021100011246A0F7B1FDC015F96ED91FC91E60FA5
:10212000F71F4770552781E090E001C0880F4A955E
:10213000EAF7482F0130110559F0A8F02E0F3F1F84
:1021400002301105E1F0DF91CF911F910F910895B9
:102150002E0F3F1FE217F307B1F38191DF011197B3
:10216000842B8C93F7CF80952E0F3F1FE217F30738
:1021700051F39191DF01119798239C93F7CFE217C8
:10218000F30709F38191DF01119784278C93F7CF2F
:102190000F931F93FA01DC0156964C9156974230EB
:1021A000E9F04330A1F1413061F514964D915C9115
:1021B000DA01AE1BBF0BFD01E21BF30B77FD0BC079
:1021C000DC0116964D915C916417750724F4AB0100
:1021D000BF010E9460101F910F91089514964D91B8
:1021E0005C91DA01A61BB70BBD0161507109DC01DE
:1021F00016964D915C91DA01AE1BBF0BFD01E21BFF
:10220000F30B77FDE8CFAF010E94B10FE4CF169634
:102210004D915C91DA01A61BB70BBD0161507109AC
:10222000CDCF0F931F93FA01DC0156964C91569730
:102230004230A9F0433091F1413019F514964D9197
:102240005C91DA01AE1BBF0BFD013197F7FD04C0B5
:10225000AB01BF010E94B10F1F910F910895149619
:102260004D915C91DA01A61BB70BBD01DC011696FE
:102270004D915C91DA01AE1BBF0BFD013197621BE2
:10228000730BF7FDE9CFDC0116964D915C91E417D5
:10229000F50714F7AF010E946010DECF16964D913E
:1022A0005C91DA01A61BB70BBD01621B730BCECF8D
:1022B000FC0177FD64C080859185681779070CF073
:1022C0005EC057FD5CC082859385481759070CF0A6
:1022D00056C086898230B1F0833029F1813041F4D3
:1022E00084819581841B950BAB01BC016150710900
:1022F0002130310509F108F443C02230310509F4D9
:1023000063C0089584819581DC01A61BB70BBD01D4
:102310006150710986819781DC01A41BB50BAD0169
:1023200041505109E5CF86819781861B970BBA01F1
:10233000AC0141505109DCCFCA0157FD0796A3E01B
:1023400095958795AA95E1F7A481B5818A9F90011B
:102350008B9F300D9A9F300D1124620F731F078CD5
:10236000F0A1E02DE60FF71F4770552721E030E080
:1023700001C0220F4A95EAF78081822B808308955D
:10238000CA0157FD079633E0959587953A95E1F791
:10239000A481B5818A9F90018B9F300D9A9F300D4B
:1023A0001124620F731F078CF0A1E02DE60FF71FB9
:1023B0004770552781E090E001C0880F4A95EAF701
:1023C000809590818923DACFCA0157FD079623E0D3
:1023D000959587952A95E1F7A481B5818A9F90010B
:1023E0008B9F300D9A9F300D1124620F731F078C45
:1023F000F0A1E02DE60FF71F4770552721E030E0F0
:1024000001C0220F4A95EAF780818227B7CF08954D
:102410008EBD00000DB407FEFDCF8EB50895EF927E
:10242000FF920F931F93CF93DF937C01C62F809170
:10243000CA039091CB03009709F459C02091CE03B1
:1024400031E03093030320930203109201031092B2
:102450000003DC01ED91FC910190F081E02D60E042
:1024600009958701EE24E394F12CD1E0C1508091CD
:10247000CA039091CB03CF3F91F1B0E2EB16F10488
:10248000D8F00E94D5088091CA039091CB03209187
:10249000CE03D09303032093020310920103109202
:1024A0000003DC01ED91FC910190F081E02D60E0F2
:1024B0000995EE24E394F12C8091CA039091CB030B
:1024C000F8016491DC01ED91FC910190F081E02D27
:1024D0000995BFEFEB1AFB0A0F5F1F4FC7CFDF91C4
:1024E000CF911F910F91FF90EF900C94D508E09140
:1024F000DA03F091DB0390818091E00380958923DA
:1025000080838701C15008F438C0F801849120917C
:10251000C8033091C903232B29F00E9408120F5FD2
:102520001F4FF0CF28E030E040E8E091D603F09173
:10253000D7039091DE03582F5423D9F05081952B67
:102540009083E091D803F091D90390815091DF03FB
:10255000952B9083E091D803F091D903508190910D
:10256000DF03909595239083469521503109E9F634
:10257000D6CF508190959523E3CFDF91CF911F91D6
:102580000F91FF90EF9008951F93CF93DF93EC018D
:102590008D8D9E8D009721F1162F29A131E030936A
:1025A0000303209302031092010310920003DC0145
:1025B000ED91FC910190F081E02D60E009958D8D09
:1025C0009E8DDC01ED91FC910190F081E02D612F59
:1025D00009958D8D9E8DDF91CF911F910C94D5081B
:1025E000ADA5BEA59C918BA9809589238C938B8DDD
:1025F0009C8D892B31F0862FDF91CF911F910C9408
:10260000081228E030E080E8A9A5BAA599A9462FCC
:102610004823C1F04C91942B9C93ABA5BCA59C91F5
:102620004AA9942B9C93ABA5BCA54C919AA99095D3
:1026300094239C9386952150310931F7DF91CF91F6
:102640001F9108954C9190959423E6CF8CBD9DBD2C
:1026500008951F93CF93DF93EC01162F8D8D9E8DE0
:10266000892BB1F12DA93EA94FA958AD60E074E2C4
:1026700084EF90E00E946C232051310941095109F7
:1026800056954795379527952093B80066EA11111E
:1026900067EACE010E94C4128D8D9E8D892B41F177
:1026A00029AD3AAD4BAD5CAD60E074E284EF90E0F3
:1026B0000E946C23205131094109510956954795D3
:1026C000379527952093B800DF91CF911F910895FA
:1026D0008B8D9C8D892B21F08EAD9FAD0E94261392
:1026E000EFA5F8A990818CA9809589238083CECF0E
:1026F000EFA5F8A980819CA9892B8083E5CF089557
:1027000090E080E008952091B3033091B403C901B3
:10271000079697FD079623E0959587952A95E1F70B
:102720002091B1033091B203829FA001839F500D8D
:10273000929F500D112470E060E08091CC03909145
:10274000CD030C94BE240E94B924FB01019000200B
:10275000E9F73197AF01461B570BDC01ED91FC9176
:102760000280F381E02D09948F929F92AF92BF92E5
:10277000EF92FF920F931F93CF93DF93CDB7DEB706
:10278000A1970FB6F894DEBF0FBECDBF7C01FA0152
:10279000CB0119A2223008F42AE08E010F5D1F4FF1
:1027A000822E912CB12CA12CBF01A50194010E9475
:1027B0006C23F901CA016A300CF5605DD8016E9393
:1027C0008D01232B242B252B79F790E080E01097A7
:1027D00021F0BD01C7010E94A513A1960FB6F89480
:1027E000DEBF0FBECDBFDF91CF911F910F91FF9044
:1027F000EF90BF90AF909F908F900895695CDECF6F
:10280000CF92DF92EF92FF920F931F93CF93DF93BC
:10281000EC016A017B01E881F9810190F081E02DF2
:102820006DE209958C0144275527BA014C195D09C1
:102830006E097F092AE0CE010E94B413800F911F18
:10284000DF91CF911F910F91FF90EF90DF90CF908C
:102850000895CF93DF93AC01990F660B770B77FF49
:1028600010C084E093E00E940014EC0168E571E080
:1028700084E093E00E94A5138C0F9D1FDF91CF9100
:1028800008952AE084E093E00E94B413EECFAB01F8
:10289000770F660B770B77FD0C9400142AE00C94ED
:1028A000B4130F931F93CF93DF93EC010E94A513F2
:1028B0008C0168E571E0CE010E94A513800F911F85
:1028C000DF91CF911F910F9108950C94A5138F92D2
:1028D0009F92AF92BF92CF92DF92EF92FF926B01E5
:1028E0007C016BEF71E084E093E00E946514A70126
:1028F0009601C701B6010E9432236BE571E0811198
:102900001AC046015701E894B7F82FEF3FEF4FE7A1
:102910005FE7C501B4010E94322381111EC02FEF71
:102920003FEF4FE75FE7C501B4010E941821181679
:10293000A4F46FE571E084E093E00E94A51367E6DC
:1029400071E084E093E0FF90EF90DF90CF90BF9034
:10295000AF909F908F900C9451142FEF3FEF4FE763
:102960005FE4C701B6010E94702218161CF463E6EA
:1029700071E0E1CF2FEF3FEF4FE75FECC701B6010A
:102980000E94182187FDF3CF20E030E0A901C701A4
:10299000B6010E94182187FF09C06DE284E093E030
:1029A0000E946906F7FAF094F7F8F0942AE037ED00
:1029B00043EA5BE3C701B6010E94AC204B015C0116
:1029C0000E948F216B017C010E94BE219B01AC0102
:1029D000C501B4010E94AB204B015C012AE0B701A4
:1029E000A60184E093E00E94B4136EE284E093E0D9
:1029F0000E94690620E030E040E251E4C501B401E4
:102A00000E94C5224B015C010E948F216B01F12CB9
:102A1000E12C2AE0B701A60184E093E00E94B41300
:102A2000C701B6010E94BE219B01AC01C501B401E2
:102A30000E94AB2020E030E040E251E40E94C52239
:102A40000E948F21AB0170E060E02AE084E093E017
:102A50000E94B41374CF85ED8093BC0080915F0217
:102A600090916002A0916102B09162020796A11D4F
:102A7000B11D23E0B695A795979587952A95D1F72F
:102A80002091BC0024FD03C01092A802089540913B
:102A90005F02509160026091610270916202452B69
:102AA000462B472B69F30097A105B10541F025E3BB
:102AB0002A95F1F700000197A109B109E1CF8091B2
:102AC0005E020C942F081F920F920FB60F921124E2
:102AD0002F933F934F935F936F937F938F939F9326
:102AE000AF93BF93EF93FF938091E3029091E40241
:102AF000A091E502B091E602892B8A2B8B2BD1F1B4
:102B00009091DE02E091DF02F091E002808189275E
:102B100080838091E3029091E402A091E502B0915C
:102B2000E602181619061A061B069CF48091E302A9
:102B30009091E402A091E502B091E6020197A1090B
:102B4000B1098093E3029093E402A093E502B0936D
:102B5000E602FF91EF91BF91AF919F918F917F918D
:102B60006F915F914F913F912F910F900FBE0F90FA
:102B70001F90189580910001E3EEFAE0E4919FEF39
:102B800090930001E13051F030F0E23069F060E004
:102B90000E942807DECF10926E00F9CF90916F004F
:102BA0009D7F90936F00F3CF909170009D7F9093E5
:102BB000700091E09093B0009091B100987F946084
:102BC0009093B1001092B300E2CF1F920F920FB614
:102BD0000F9211242F933F934F935F936F937F93A3
:102BE0008F939F93AF93BF93EF93FF9384E093E012
:102BF0000E944706FF91EF91BF91AF919F918F91F6
:102C00007F916F915F914F913F912F910F900FBEE8
:102C10000F901F9018951F920F920FB60F921124CC
:102C20002F938F939F93EF93FF93E0911403F09171
:102C300015038081E0911A03F0911B0382FD1BC0F4
:102C4000908180911D038F5F8F7320911E038217E7
:102C500041F0E0911D03F0E0EC5FFC4F958F809315
:102C60001D03FF91EF919F918F912F910F900FBEB8
:102C70000F901F9018958081F4CF1F920F920FB67E
:102C80000F9211242F933F938F939F93AF93BF93F2
:102C90008091CF029091D002A091D102B091D20246
:102CA0003091CE0223E0230F2D3758F50196A11D58
:102CB000B11D2093CE028093CF029093D002A093B7
:102CC000D102B093D2028091D3029091D402A0910C
:102CD000D502B091D6020196A11DB11D8093D302F9
:102CE0009093D402A093D502B093D602BF91AF9136
:102CF0009F918F913F912F910F900FBE0F901F903A
:102D0000189526E8230F0296A11DB11DD2CF1F9260
:102D10000F920FB60F9211242F933F934F935F930F
:102D20006F937F938F939F93AF93BF93EF93FF9393
:102D30008091B900887F803609F44AC0F0F5883266
:102D400009F4A7C018F5803109F49BC0B8F48823B2
:102D500009F4F9C0883009F494C0FF91EF91BF9154
:102D6000AF919F918F917F916F915F914F913F9123
:102D70002F910F900FBE0F901F901895883109F476
:102D800088C0803251F78093A70214C0803409F4C0
:102D90009DC040F48033B9F38833F9F68093A702DD
:102DA00085ECB0C0803509F485C0883509F496C03B
:102DB000883499F60E942B15D0CF883909F48CC03D
:102DC00038F5883729F050F4883611F0803729F625
:102DD00083E08093A8021092A60257C0883809F4B5
:102DE0007BC0803919F0803809F0B7CF8091A602F6
:102DF000803208F071C0E091A60281E08E0F8093CE
:102E0000A6028091BB00F0E0EA57FD4F80833DC0F1
:102E1000803B39F0E0F4803A09F479C0883A09F04F
:102E20009CCF84E08093A8021092850210928402C5
:102E3000E091DA02F091DB02099580918402811120
:102E40000FC081E0809384021092640209C0803C2C
:102E500009F4A6CF883C09F4A3CF883B09F07DCFC5
:102E6000E091850281E08E0F80938502F0E0EC59BD
:102E7000FD4F80818093BB009091850280918402F8
:102E800029C08091CD028093BB0085EC8093BC006B
:102E900064CF9091CC028091CB02981758F5E091C5
:102EA000CC0281E08E0F8093CC02F0E0E555FD4F1F
:102EB0008081E9CFE091CC0281E08E0F8093CC023B
:102EC0008091BB00F0E0E555FD4F80839091CC02EE
:102ED0008091CB029817C8F285E8D8CFE091CC0258
:102EE00081E08E0F8093CC028091BB00F0E0E5552D
:102EF000FD4F80838091AA0281115CCF81E0809395
:102F0000A90284EA8093BC001092A80226CF85EC27
:102F10008093BC001092A8028091A602803230F407
:102F2000E091A602F0E0EA57FD4F10826091A60200
:102F300070E0E091D802F091D90286E892E009951C
:102F40001092A6020ACF1092A70234CFE4E0F3E079
:102F50001382128248EE53E060E070E044835583B0
:102F6000668377838CE091E09183808385EC90E0A9
:102F70009587848784EC90E09787868780EC90E043
:102F8000918B808B81EC90E0938B828B82EC90E034
:102F9000958B848B86EC90E0978B868B118E128EAE
:102FA000138E148EA1EAB3E013961C921E92129710
:102FB00014964D935D936D937C9317978EE191E0FA
:102FC00011969C938E93EDEAF3E01382128220E82F
:102FD00030E03583248380E490E0978386833187D3
:102FE000208793878287168A158614861786168609
:102FF00081E0858B848B2FEF3FEF338B228B318BDE
:10300000208B878B108E128E118E80E391E091833E
:103010008083148E138EB68FA58F10A2178E8FEF1C
:1030200084A385A386A387A380A780E89AE1A6E06E
:10303000B0E085AB96ABA7ABB0AF80EA96E8A1E075
:10304000B0E081AF92AFA3AFB4AF80E586AF17AE6B
:103050000895CF93DF93CDB7DEB728970FB6F894D6
:10306000DEBF0FBECDBF789484B5826084BD84B5C9
:10307000816084BD85B5826085BD85B5816085BD73
:1030800080916E00816080936E001092810080912B
:1030900081008260809381008091810081608093B3
:1030A0008100809180008160809380008091B100D8
:1030B00084608093B1008091B00081608093B00003
:1030C00080917A00846080937A0080917A00826097
:1030D00080937A0080917A00816080937A00809159
:1030E0007A00806880937A001092C1000E949E0549
:1030F0008091CC039091CD03892B11F10E94831311
:103100002091B3033091B4038091B1039091B20345
:10311000213231050CF07FC2B9016052710977FF8D
:1031200002C06F5F7F4F759567958357910997FD33
:10313000019600E210E023E730E04CE056E07EC26A
:103140002091B3033091B403C901079697FD079608
:10315000B3E095958795BA95E1F72091B103309149
:10316000B203AC01429FC001439F900D529F900D4E
:1031700011240E9494239093CD038093CC03892B38
:1031800009F0BCCF0E94831381E08093C103809338
:10319000C20381E090E09093C0038093BF039093BB
:1031A000BE038093BD0362E082E00E94560762E0A6
:1031B00083E00E94560762E084E00E94560761E0C7
:1031C00089E00E94560761E08AE00E94560761E0AC
:1031D0008BE00E94560761E08DE00E94560761E097
:1031E00089E00E94560761E08DE00E9456070E9428
:1031F0009E0522242394312C80E480937C008091CE
:103200007A00806480937A0080917A0086FDFCCFFA
:103210008091780060917900762F682F072E000C3E
:10322000880B990B0E94C0219B01AC0160E070ECFF
:103230008FE794E40E941D2120E030E040E85FE346
:103240000E94AB2020E030E44CE156E40E94C5220D
:103250000E947D226B017C012CE63FEC48E554E3A3
:103260000E94C522A70196010E94C522A7019601CE
:103270000E94C5224B015C0126ED34E649E759E383
:10328000C701B6010E94C5222BEC38E444E85AE39A
:103290000E94AC209B01AC01C501B4010E94AC208E
:1032A0009B01AC0160E070E080E89FE30E941D217B
:1032B00023E333E948E853E40E94AB206093FC0227
:1032C0007093FD028093FE029093FF02C090FA0279
:1032D000D090FB02E090F802F090F9022091F40205
:1032E0003091F5024091F6025091F70229833A831A
:1032F0004B835C834090F0025090F1026090F202A8
:103300007090F3020E9483131092BA031092B903D3
:103310001092BC031092BB033092C0032092BF03F3
:103320003092BE032092BD036AE671E08DEA93E01D
:103330000E946514B6018DEA93E00E94471468E785
:1033400071E08DEA93E00E9465146AE571E08DEA10
:1033500093E00E9451146CE771E08DEA93E00E94C3
:103360006514C301B20120E83EEE46E350E00E943E
:103370006C232D833E834F8358872AE04D815E81E5
:103380006F8178858DEA93E00E94B41365E871E05F
:103390008DEA93E00E946514B7018DEA93E00E94E4
:1033A00047140E94DE074B015C010E94DE076B019F
:1033B0007C016AE571E08DEA93E00E94511489E096
:1033C0000E94FF06019709F083C0C301B20128EEF5
:1033D00033E040E050E00E946C2329013A01C5012E
:1033E000B40129813A814B815C81621B730B840B90
:1033F000950B28EE33E040E050E00E946C23421A27
:10340000530A640A750AC301B2012CE330E040E0BC
:1034100050E00E946C2349016AE571E08DEA93E077
:103420000E94511467E871E08DEA93E00E946514F0
:103430006AE571E08DEA93E00E945114C701B6017C
:1034400029813A814B815C81621B730B840B950B44
:1034500020E83EEE46E350E00E946C238D819E8181
:10346000AF81B885821B930BA40BB50BAC01BD01DA
:103470002AE08DEA93E00E94B41365E871E08DEADA
:1034800093E00E946514A401092C000C660B770BD5
:103490002AE08DEA93E00E94B41365E871E08DEABA
:1034A00093E00E9465142CE3289DC001299D900D96
:1034B0001124092E000CAA0BBB0BB301A201481B5F
:1034C000590B6A0B7B0B2AE08DEA93E00E94B41340
:1034D0008091CA039091CB03892B09F49FC220915C
:1034E000E2033091E3034091E4035091E50360E08F
:1034F00074E284EF90E00E946C232051310941096D
:10350000510956954795379527952093B80065E062
:103510008CEA9AE00E940F126091B10361508DEA2B
:1035200093E00E94C4122091B3033091B403C90107
:10353000079697FD079673E0959587957A95E1F73D
:103540002091B1033091B203829F7001839FF00CF0
:10355000929FF00C1124A091CC03B091CD03BA83BB
:10356000A9838091CA039091CB03EA0EFB1E0097BA
:1035700009F472C32091CE0331E03093030320930A
:1035800002031092010310920003DC01ED91FC9103
:103590000190F081E02D60E4099501E010E0DD2468
:1035A000D3948091CA039091CB03E981FA81EE16FE
:1035B000FF0609F44AC200321105D0F00E94D50876
:1035C0008091CA039091CB032091CE03D092030344
:1035D000209302031092010310920003DC01ED918D
:1035E000FC910190F081E02D60E4099501E010E08C
:1035F0008091CA039091CB03E981FA816191FA83AA
:10360000E983DC01ED91FC910190F081E02D0995B9
:103610000F5F1F4FC6CFB9016054710977FF02C019
:103620006F5F7F4F759567958255910997FD01965C
:1036300000E410E022E530E04CEE57E095958795E8
:103640000E94A30E82E08093CF038091CA039091E1
:10365000CB03892B09F4E0C08CE38093CE03109256
:10366000DD021092DC0210920103109200030E940E
:10367000110887EC95E09093DB028093DA0288ECE6
:1036800095E09093D9028093D8028091D50387FD6D
:103690001EC061E00E94560761E08091D5030E9440
:1036A000280761E070E080E090E00E94AC0760E0F5
:1036B0008091D5030E9428076AE070E080E090E0E6
:1036C0000E94AC0761E08091D5030E942807809199
:1036D000CA039091CB03892B09F45FC12091E203C7
:1036E0003091E3034091E4035091E50360E074E21C
:1036F00084EF90E00E946C23205131094109510967
:1037000056954795379527952093B80064E088E053
:1037100096E00E940F126091B30361508DEA93E02E
:103720000E94C41264E084E096E00E940F1280912F
:10373000CF0360E1813009F064E18DEA93E00E94FB
:10374000C41264E080E096E00E940F128FE880933C
:10375000EA038091B1039091B2038038910509F09A
:1037600035C18091B3039091B4038034910509F081
:1037700042C18091CF03813009F026C18FE9809347
:10378000EA0392E199836AED8DEA93E00E94C41204
:1037900069818DEA93E00E94C41261E88DEA93E0AA
:1037A0000E94C4126091EA038DEA93E00E94C41261
:1037B00069ED8DEA93E00E94C4128091CF0362E22A
:1037C000813009F061EF8DEA93E00E94C41266E057
:1037D0008AEF95E00E940F128091CA039091CB036B
:1037E000892B09F411C12091E6033091E703409140
:1037F000E8035091E90360E074E284EF90E00E94F6
:103800006C23205131094109510956954795379547
:1038100027952093B800B6CC61E08091D3030E9435
:10382000560761E08091D4030E9456078091D3032C
:10383000082E000C990BFC01E153F54FE491F0E0E8
:10384000EE0FFF1FEB53F54F259134913093DB03BF
:103850002093DA03FC01EF54F54FE491E093E00389
:103860008091D403082E000C990BFC01E153F54F15
:10387000E491F0E0EE0FFF1FEB53F54FA591B491EB
:10388000B093DD03A093DC03FC01EF54F54FE4910A
:10389000E093E1038C91E82BEC938091C803909125
:1038A000C903892B09F436C05FB75983F894809116
:1038B000D702811127C0E9EDFAE08491EBEBFAE041
:1038C0009491E82FF0E0EE0FFF1FE051FA4FA59121
:1038D000B491EC91E92321F461E08AE00E94280789
:1038E00061E08AE00E9456078CB580618CBD8CB582
:1038F00080648CBD61E08DE00E94560761E08BE042
:103900000E9456078091D7028F5F8093D7028981EA
:103910008FBFBBCE61E08091D1030E94560761E06A
:103920008091D2030E9456078091D103082E000C8B
:10393000990BFC01E153F54FE491F0E0EE0FFF1F0E
:10394000EB53F54F259134913093D7032093D60351
:10395000FC01EF54F54FE491E093DE038091D20334
:10396000082E000C990BFC01E153F54FE491F0E0B7
:10397000EE0FFF1FEB53F54FA591B491B093D90310
:10398000A093D803FC01EF54F54FE491E093DF03DB
:103990008C91E095E823EC9378CE8091C8039091C8
:1039A000C903892B31F08091EB039091EC030E94C5
:1039B0002613E091DC03F091DD0390818091E10317
:1039C000809589238083A2CE8FECD9CE8036910555
:1039D000A9F48091B3039091B403409791F480913E
:1039E000CF03813031F480E18093EA03A2E0A98320
:1039F000CACE8FEAF9CFB2E0B983C5CEE2E0E9835F
:103A0000C2CEF2E0F983BFCEE091DC03F091DD039A
:103A100080819091E103892B8083B4CB8091C8038E
:103A20009091C903892B31F08091EB039091EC03C5
:103A30000E942613E091DC03F091DD0390818091D8
:103A4000E10380958923808362CD0E94D50880910F
:103A5000CA039091CB03892B09F444C12091E6035A
:103A60003091E7034091E8035091E90360E074E28C
:103A700084EF90E00E946C232051310941095109E3
:103A800056954795379527952093B80082E00E9478
:103A9000FF06892B69F480910101882349F0809108
:103AA000FA029091FB0205969093FB028093FA0232
:103AB00083E00E94FF06892B69F48091010188232D
:103AC00049F08091FA029091FB0205979093FB02D6
:103AD0008093FA0282E00E94FF06892B29F58091EB
:103AE000EF02882309F18091F0029091F102A091F8
:103AF000F202B091F302805A9541AF4FBF4F8093CD
:103B0000F0029093F102A093F202B093F30280913D
:103B1000F8029091F90201968C3391050CF0ECC0FB
:103B20009093F9028093F80283E00E94FF06892BAC
:103B300039F58091F0029091F102A091F202B091DA
:103B4000F3020097A105B105D9F02091EF022223DD
:103B5000B9F080569A4EA109B1098093F002909372
:103B6000F102A093F202B093F3028091F8029091D7
:103B7000F902019797FDC5C09093F9028093F8026E
:103B80008090FC029090FD02A090FE02B090FF0297
:103B9000C090F002D090F102E090F202F090F302B7
:103BA00020E030E0A901C501B4010E94702218167E
:103BB000C4F484E00E94FF06892B99F430E6C31612
:103BC0003AEED306E104F10460F08091EF0288231D
:103BD00041F061E089E00E94280761E08AE00E94EC
:103BE00028076091FA027091FB02072E000C880BE7
:103BF000990B0E94C0212B013C01AC019B01C50126
:103C0000B4010E94702260E087FF22C0A3019201EC
:103C1000C501B4010E94182187FD7AC089E00E9485
:103C2000FF06019709F094C08AE00E94FF06892BE5
:103C300009F08EC0A3019201C501B4010E941821B0
:103C400087FF86C08091EF02882309F481C061E07C
:103C50008AE00E9428077CC0E091DA03F091DB0340
:103C600080819091E003892B8083E981FA81EE16AF
:103C7000FF0609F4ECCE8191FA83E9832091C80311
:103C80003091C903232B19F00E940812EECF28E0CF
:103C900030E090E8E091D603F091D7034091DE0345
:103CA000582F5923D9F05081452B4083E091D803F8
:103CB000F091D90340815091DF03452B4083E0917F
:103CC000D803F091D90350814091DF0340954523FB
:103CD0004083969521503109E9F6C7CF5081409530
:103CE0004523E3CFE091DC03F091DD0380819091E7
:103CF000E103892B8083CACE1092F9021092F80258
:103D000013CF2BE330E03093F9022093F80238CF41
:103D100084E00E94FF06892B09F080CF40E6C4169C
:103D20004AEED406E104F10408F478CF61E089E0BA
:103D30000E94280761E08AE00E9428070E94DE07AF
:103D40006093F4027093F5028093F6029093F70269
:103D500084E00E94FF06892B61F480910101882391
:103D600041F0109201018091EF0291E08927809348
:103D7000EF020E94DE070091F4021091F5022091FB
:103D8000F6023091F702601B710B820B930B6C15DE
:103D90007D058E059F05E8F050E6C5165AEED5065E
:103DA000E104F104B0F060E08AE00E94280760E0DE
:103DB00089E00E9428078DE00E94FF06892B09F404
:103DC000C9C060E08DE00E94280760E08BE00E949F
:103DD000280768E971E084E093E00E9465140E947E
:103DE000DE070091F4021091F5022091F602309165
:103DF000F702601B710B820B930B28EE33E040E05F
:103E000050E00E946C23BA01A9012AE084E093E00B
:103E10000E94B41366EA71E084E093E00E945114BA
:103E200069EA71E084E093E00E9465146091F00219
:103E30007091F1028091F2029091F30220E83EEE3F
:103E400046E350E00E946C23BA01A9012AE084E015
:103E500093E00E94B41365E871E084E093E00E946F
:103E600065148091F8029091F9020E9429146091E2
:103E7000FC027091FD028091FE029091FF020E946F
:103E8000671468EB71E084E093E00E946514609130
:103E9000FC027091FD028091FE029091FF020E944F
:103EA000671467E671E084E093E00E94511462ECCD
:103EB00071E084E093E00E9465146091FA027091D1
:103EC000FB0284E093E00E94471467E671E084E01F
:103ED00093E00E9451146DEC71E084E093E00E9445
:103EE000651489E00E94FF060E9429146CED71E0C0
:103EF00084E093E00E9465148AE00E94FF060E941D
:103F000029146FEE71E084E093E00E9465148091C3
:103F1000010190E00E94291469E072E084E093E0DE
:103F20000E9465148091EF0290E00E94291468EECF
:103F300073E080E090E00E94AC0780E090E0892B85
:103F400009F45AC90E943306882309F455C90E940E
:103F500000004FC98BE00E94FF06892B09F031CF8A
:103F600061E08DE00E94280761E08BE00E94280755
:103F7000809100018B30B9F4E3EEFAE0149117FD63
:103F800028CF61E08BE00E945607112309F481C01D
:103F9000123009F096C08091B100887F84608093D0
:103FA000B1008FECB5C08F3F09F013CF8BE0809349
:103FB0000001E3EEFAE014911F3F09F40ACF11303B
:103FC00029F150F0123009F440C017FD02CF61E032
:103FD0008BE00E945607DCCF14BC15BC84B5826010
:103FE00084BD85B5816085BDEAEDFAE08491E82F56
:103FF000F0E0EE0FFF1FEB53F54F85919491ECEB42
:10400000FAE084918093E20210E0BBCF109280002E
:10401000109281008091810088608093810080915E
:104020008100816080938100EAEDFAE08491E82FBD
:10403000F0E0EE0FFF1FEB53F54F85919491ECEB01
:10404000FAE084918093E1029CCF1092B00010922C
:10405000B1008091B00082608093B0008091B10087
:1040600081608093B100EAEDFAE08491E82FF0E0FE
:10407000EE0FFF1FEB53F54F859194919093E00263
:104080008093DF02ECEBFAE084918093DE0212E091
:1040900078CF85B5887F836085BD8FEC87BD20EBA9
:1040A00034E040E050E02093EB023093EC02409388
:1040B000ED025093EE0280916E00826080936E005C
:1040C00088CE1130F1F480918100887F81608093E7
:1040D000810024E134E3309389002093880080EB51
:1040E00094E0A0E0B0E08093E7029093E802A09310
:1040F000E902B093EA0280916F00826080936F00C2
:1041000068CE123021F0111164CE84E1C7CF84E172
:104110008093B30080EB94E0A0E0B0E08093E302F2
:104120009093E402A093E502B093E60280917000C0
:104130008260809370004DCE80E391E09093AE0357
:104140008093AD038091CC039091CD03009711F043
:104150000C94302408955058BB27AA270E94C320EE
:104160000C9436220E94282238F00E942F2220F040
:1041700039F49F3F19F426F40C9425220EF4E095AF
:10418000E7FB0C941F22E92F0E94472258F3BA172D
:10419000620773078407950720F079F4A6F50C945D
:1041A00069220EF4E0950B2EBA2FA02D0B01B90158
:1041B00090010C01CA01A0011124FF27591B99F09D
:1041C000593F50F4503E68F11A16F040A22F232FA9
:1041D000342F4427585FF3CF469537952795A795F9
:1041E000F0405395C9F77EF41F16BA0B620B730BA0
:1041F000840BBAF09150A1F0FF0FBB1F661F771F11
:10420000881FC2F70EC0BA0F621F731F841F48F4C5
:10421000879577956795B795F7959E3F08F0B0CF4E
:104220009395880F08F09927EE0F97958795089535
:104230000E94FB2108F481E008950E9431210C9432
:1042400036220E942F2258F00E94282240F029F4A2
:104250005F3F29F00C941F2251110C946A220C9498
:1042600025220E94472268F39923B1F3552391F345
:10427000951B550BBB27AA2762177307840738F0D5
:104280009F5F5F4F220F331F441FAA1FA9F335D032
:104290000E2E3AF0E0E832D091505040E695001CE6
:1042A000CAF72BD0FE2F29D0660F771F881FBB1FA0
:1042B000261737074807AB07B0E809F0BB0B802D7E
:1042C000BF01FF2793585F4F3AF09E3F510578F0AA
:1042D0000C941F220C946A225F3FE4F3983ED4F3BF
:1042E000869577956795B795F7959F5FC9F7880F7E
:1042F000911D9695879597F90895E1E0660F771FD0
:10430000881FBB1F621773078407BA0720F0621B60
:10431000730B840BBA0BEE1F88F7E09508950E948B
:104320004F2288F09F5798F0B92F9927B751B0F0D6
:10433000E1F0660F771F881F991F1AF0BA95C9F729
:1043400014C0B13091F00E946922B1E008950C943C
:104350006922672F782F8827B85F39F0B93FCCF3EF
:10436000869577956795B395D9F73EF490958095A6
:10437000709561957F4F8F4F9F4F0895E89409C0C6
:1043800097FB3EF490958095709561957F4F8F4F88
:104390009F4F9923A9F0F92F96E9BB279395F6959E
:1043A000879577956795B795F111F8CFFAF4BB0F1C
:1043B00011F460FF1BC06F5F7F4F8F4F9F4F16C080
:1043C000882311F096E911C0772321F09EE8872F0A
:1043D000762F05C0662371F096E8862F70E060E0C6
:1043E0002AF09A95660F771F881FDAF7880F96953F
:1043F000879597F90895990F0008550FAA0BE0E8E3
:10440000FEEF16161706E807F907C0F01216130696
:10441000E407F50798F0621B730B840B950B39F4D6
:104420000A2661F0232B242B252B21F408950A263C
:1044300009F4A140A6958FEF811D811D089597F97C
:104440009F6780E870E060E008959FEF80EC08953A
:1044500000240A9416161706180609060895002463
:104460000A9412161306140605060895092E0394DD
:10447000000C11F4882352F0BB0F40F4BF2B11F451
:1044800060FF04C06F5F7F4F8F4F9F4F089557FDB0
:104490009058440F551F59F05F3F71F04795880FB2
:1044A00097FB991F61F09F3F79F087950895121649
:1044B00013061406551FF2CF4695F1DF08C01616F5
:1044C00017061806991FF1CF8695710561050894A6
:1044D0000895E894BB2766277727CB0197F90895BD
:1044E0000E94FB2108F48FEF089516F00C943723F7
:1044F0000C94252268940C941F220E944F22A8F34A
:104500009923C1F3AEF3DF93CF931F930F93FF92E1
:10451000C92FDD2788232AF02197660F771F881F70
:10452000DAF720E030E040E85FEB9FE3883920F0E5
:10453000803E38F021968F770E94AC20E8E6F0E0CC
:1045400004C00E94AC20E5E9F0E00E9445238B0105
:10455000BE01EC01FB2E6F5771097595771F880B13
:10456000990B0E94C02128E132E741E35FE30E94FA
:10457000D822AF2D9801AE01FF900F911F91CF91DE
:10458000DF910E94C3200C9436220E94D8220C9402
:1045900036220E94282238F00E942F2220F09523F4
:1045A00011F00C941F220C94252211240C946A22E1
:1045B0000E94472270F3959FC1F3950F50E0551F5D
:1045C000629FF001729FBB27F00DB11D639FAA2768
:1045D000F00DB11DAA1F649F6627B00DA11D661FB7
:1045E000829F2227B00DA11D621F739FB00DA11DD8
:1045F000621F839FA00D611D221F749F3327A00D92
:10460000611D231F849F600D211D822F762F6A2F2D
:1046100011249F5750409AF0F1F088234AF0EE0F92
:10462000FF1FBB1F661F771F881F91505040A9F7BF
:104630009E3F510580F00C941F220C946A225F3F2C
:10464000E4F3983ED4F3869577956795B795F795FB
:10465000E7959F5FC1F7FE2B880F911D9695879573
:1046600097F908950E94FB21880B990B08959F3FAD
:1046700031F0915020F4879577956795B795880F1D
:10468000911D9695879597F90895DF93CF931F9382
:104690000F93FF92EF92DF927B018C01689406C02A
:1046A000DA2EEF010E94D822FE01E894A59125910F
:1046B000359145915591A6F3EF010E94C320FE016B
:1046C0009701A801DA9469F7DF90EF90FF900F91BE
:1046D0001F91CF91DF910895A1E21A2EAA1BBB1B57
:1046E000FD010DC0AA1FBB1FEE1FFF1FA217B307BE
:1046F000E407F50720F0A21BB30BE40BF50B661FD4
:10470000771F881F991F1A9469F760957095809597
:1047100090959B01AC01BD01CF010895EE0FFF1FE5
:104720000590F491E02D09940F931F93CF93DF939D
:104730008230910510F482E090E0E091EF03F09177
:10474000F00330E020E0B0E0A0E0309799F42115CC
:10475000310509F44AC0281B390B24303105D8F53E
:104760008A819B816115710589F1FB0193838283A5
:10477000FE0111C040815181028113814817590700
:10478000E0F04817590799F4109761F012960C93CE
:10479000129713961C933296CF01DF91CF911F9100
:1047A0000F9108950093EF031093F003F4CF2115B8
:1047B000310551F04217530738F0A901DB019A0186
:1047C000BD01DF01F801C1CFEF01F9CF9093F003F4
:1047D0008093EF03CDCFFE01E20FF31F81939193FE
:1047E0002250310939832883D7CF2091ED033091AE
:1047F000EE03232B41F42091040130910501309305
:10480000EE032093ED032091020130910301211565
:10481000310541F42DB73EB7409106015091070193
:10482000241B350BE091ED03F091EE03E217F30743
:10483000A0F42E1B3F0B2817390778F0AC014E5F10
:104840005F4F2417350748F04E0F5F1F5093EE035C
:104850004093ED03819391939FCFF0E0E0E09CCFF4
:10486000CF93DF930097E9F0FC0132971382128215
:10487000A091EF03B091F003ED0130E020E010973C
:10488000A1F420813181820F931F2091ED0330919B
:10489000EE032817390709F061C0F093EE03E093A7
:1048A000ED03DF91CF910895EA01CE17DF07E8F518
:1048B0004A815B819E0141155105B1F7E901FB83F6
:1048C000EA8349915991C40FD51FEC17FD0761F494
:1048D000808191810296840F951FE90199838883D5
:1048E000828193819B838A83F0E0E0E012968D9130
:1048F0009C9113970097B9F52D913C911197CD019B
:104900000296820F931F2091ED033091EE0328173A
:10491000390739F6309751F51092F0031092EF03F2
:10492000B093EE03A093ED03BCCFD383C283408149
:104930005181840F951FC817D90761F44E5F5F4FEF
:1049400088819981480F591F518340838A819B81B7
:10495000938382832115310509F0B0CFF093F003E2
:10496000E093EF039ECFFD01DC01C0CF13821282E2
:10497000D7CF81E090E0F8940C94C524DC0101C00D
:104980006D9341505040E0F7089515E0C3E7D5E03E
:1049900004C0FE010E948E232196C437D107C9F7B7
:0449A000F894FFCFB9
:1049A400FF010000F1038000000000006906C90552
:1049B400F605B60627060506190600000000A60837
:1049C40079088013C60572085F08500800000000CB
:1049D400F70BC90580137F135811C6059C0E740E7E
:1049E400900E840E040FC605BD092913C8101111B9
:1049F400BD0DA00D280DC90C0D0A006E616E006975
:104A04006E66006F76660020430054656D702073F7
:104A140065746164613A2000433A200054696D650D
:104A2400723A2020003A0054656D706F20726573ED
:104A340074616E74653A200054656D706F20617402
:104A440075616C3A200020730054656D706F20739B
:104A5400657461646F3A20005420617475616C3A26
:104A6400200054207365746164613A2000537461BA
:104A740074757320626F6D62613A200053746174BF
:104A8400757320617175656365646F723A200042C5
:104A94006F74616F20656E7465722054656D706506
:104AA4007261747572613A2000426F74616F20659F
:0E4AB4006E7465722054656D706F3A200000BC
:00000001FF
